{
	"contracts/loops.sol": {
		"loops": {
			"abi": [
				{
					"inputs": [],
					"name": "dowhileloop",
					"outputs": [
						{
							"internalType": "uint256",
							"name": "",
							"type": "uint256"
						}
					],
					"stateMutability": "pure",
					"type": "function"
				},
				{
					"inputs": [],
					"name": "forloop",
					"outputs": [
						{
							"internalType": "uint256",
							"name": "",
							"type": "uint256"
						}
					],
					"stateMutability": "pure",
					"type": "function"
				},
				{
					"inputs": [],
					"name": "whileloop",
					"outputs": [
						{
							"internalType": "uint256",
							"name": "",
							"type": "uint256"
						}
					],
					"stateMutability": "pure",
					"type": "function"
				}
			],
			"devdoc": {
				"kind": "dev",
				"methods": {},
				"version": 1
			},
			"evm": {
				"assembly": "    /* \"contracts/loops.sol\":245:961  contract loops{... */\n  mstore(0x40, 0x80)\n  callvalue\n  dup1\n  iszero\n  tag_1\n  jumpi\n  revert(0x00, 0x00)\ntag_1:\n  pop\n  dataSize(sub_0)\n  dup1\n  dataOffset(sub_0)\n  0x00\n  codecopy\n  0x00\n  return\nstop\n\nsub_0: assembly {\n        /* \"contracts/loops.sol\":245:961  contract loops{... */\n      mstore(0x40, 0x80)\n      callvalue\n      dup1\n      iszero\n      tag_1\n      jumpi\n      revert(0x00, 0x00)\n    tag_1:\n      pop\n      jumpi(tag_2, lt(calldatasize, 0x04))\n      shr(0xe0, calldataload(0x00))\n      dup1\n      0x32a37534\n      eq\n      tag_3\n      jumpi\n      dup1\n      0x4c999463\n      eq\n      tag_4\n      jumpi\n      dup1\n      0xbc68f960\n      eq\n      tag_5\n      jumpi\n    tag_2:\n      revert(0x00, 0x00)\n        /* \"contracts/loops.sol\":692:940  function dowhileloop() public pure returns(uint){... */\n    tag_3:\n      tag_6\n      tag_7\n      jump\t// in\n    tag_6:\n      mload(0x40)\n      tag_8\n      swap2\n      swap1\n      tag_9\n      jump\t// in\n    tag_8:\n      mload(0x40)\n      dup1\n      swap2\n      sub\n      swap1\n      return\n        /* \"contracts/loops.sol\":268:497  function whileloop() public pure returns(uint){... */\n    tag_4:\n      tag_10\n      tag_11\n      jump\t// in\n    tag_10:\n      mload(0x40)\n      tag_12\n      swap2\n      swap1\n      tag_9\n      jump\t// in\n    tag_12:\n      mload(0x40)\n      dup1\n      swap2\n      sub\n      swap1\n      return\n        /* \"contracts/loops.sol\":509:684  function forloop() public pure returns(uint){... */\n    tag_5:\n      tag_13\n      tag_14\n      jump\t// in\n    tag_13:\n      mload(0x40)\n      tag_15\n      swap2\n      swap1\n      tag_9\n      jump\t// in\n    tag_15:\n      mload(0x40)\n      dup1\n      swap2\n      sub\n      swap1\n      return\n        /* \"contracts/loops.sol\":692:940  function dowhileloop() public pure returns(uint){... */\n    tag_7:\n        /* \"contracts/loops.sol\":735:739  uint */\n      0x00\n        /* \"contracts/loops.sol\":753:761  uint num */\n      0x00\n        /* \"contracts/loops.sol\":762:763  0 */\n      0x00\n        /* \"contracts/loops.sol\":753:763  uint num=0 */\n      swap1\n      pop\n        /* \"contracts/loops.sol\":774:784  uint count */\n      0x00\n        /* \"contracts/loops.sol\":785:786  0 */\n      0x00\n        /* \"contracts/loops.sol\":774:786  uint count=0 */\n      swap1\n      pop\n        /* \"contracts/loops.sol\":801:895  do{... */\n    tag_17:\n        /* \"contracts/loops.sol\":826:827  1 */\n      0x01\n        /* \"contracts/loops.sol\":822:825  num */\n      dup3\n        /* \"contracts/loops.sol\":822:827  num+1 */\n      tag_20\n      swap2\n      swap1\n      tag_21\n      jump\t// in\n    tag_20:\n        /* \"contracts/loops.sol\":818:827  num=num+1 */\n      swap2\n      pop\n        /* \"contracts/loops.sol\":854:855  1 */\n      0x01\n        /* \"contracts/loops.sol\":848:853  count */\n      dup2\n        /* \"contracts/loops.sol\":848:855  count+1 */\n      tag_22\n      swap2\n      swap1\n      tag_21\n      jump\t// in\n    tag_22:\n        /* \"contracts/loops.sol\":842:855  count=count+1 */\n      swap1\n      pop\n        /* \"contracts/loops.sol\":892:893  5 */\n      0x05\n        /* \"contracts/loops.sol\":886:891  count */\n      dup2\n        /* \"contracts/loops.sol\":886:893  count<5 */\n      lt\n        /* \"contracts/loops.sol\":801:895  do{... */\n      tag_17\n      jumpi\n        /* \"contracts/loops.sol\":923:926  num */\n      dup2\n        /* \"contracts/loops.sol\":916:926  return num */\n      swap3\n      pop\n      pop\n      pop\n        /* \"contracts/loops.sol\":692:940  function dowhileloop() public pure returns(uint){... */\n      swap1\n      jump\t// out\n        /* \"contracts/loops.sol\":268:497  function whileloop() public pure returns(uint){... */\n    tag_11:\n        /* \"contracts/loops.sol\":309:313  uint */\n      0x00\n        /* \"contracts/loops.sol\":327:335  uint num */\n      0x00\n        /* \"contracts/loops.sol\":336:337  0 */\n      0x00\n        /* \"contracts/loops.sol\":327:337  uint num=0 */\n      swap1\n      pop\n        /* \"contracts/loops.sol\":348:358  uint count */\n      0x00\n        /* \"contracts/loops.sol\":359:360  0 */\n      0x00\n        /* \"contracts/loops.sol\":348:360  uint count=0 */\n      swap1\n      pop\n        /* \"contracts/loops.sol\":373:463  while (count<5) ... */\n    tag_24:\n        /* \"contracts/loops.sol\":386:387  5 */\n      0x05\n        /* \"contracts/loops.sol\":380:385  count */\n      dup2\n        /* \"contracts/loops.sol\":380:387  count<5 */\n      lt\n        /* \"contracts/loops.sol\":373:463  while (count<5) ... */\n      iszero\n      tag_25\n      jumpi\n        /* \"contracts/loops.sol\":422:423  1 */\n      0x01\n        /* \"contracts/loops.sol\":418:421  num */\n      dup3\n        /* \"contracts/loops.sol\":418:423  num+1 */\n      tag_26\n      swap2\n      swap1\n      tag_21\n      jump\t// in\n    tag_26:\n        /* \"contracts/loops.sol\":414:423  num=num+1 */\n      swap2\n      pop\n        /* \"contracts/loops.sol\":450:451  1 */\n      0x01\n        /* \"contracts/loops.sol\":444:449  count */\n      dup2\n        /* \"contracts/loops.sol\":444:451  count+1 */\n      tag_27\n      swap2\n      swap1\n      tag_21\n      jump\t// in\n    tag_27:\n        /* \"contracts/loops.sol\":438:451  count=count+1 */\n      swap1\n      pop\n        /* \"contracts/loops.sol\":373:463  while (count<5) ... */\n      jump(tag_24)\n    tag_25:\n        /* \"contracts/loops.sol\":480:483  num */\n      dup2\n        /* \"contracts/loops.sol\":473:483  return num */\n      swap3\n      pop\n      pop\n      pop\n        /* \"contracts/loops.sol\":268:497  function whileloop() public pure returns(uint){... */\n      swap1\n      jump\t// out\n        /* \"contracts/loops.sol\":509:684  function forloop() public pure returns(uint){... */\n    tag_14:\n        /* \"contracts/loops.sol\":548:552  uint */\n      0x00\n        /* \"contracts/loops.sol\":566:574  uint sum */\n      0x00\n        /* \"contracts/loops.sol\":575:576  0 */\n      0x00\n        /* \"contracts/loops.sol\":566:576  uint sum=0 */\n      swap1\n      pop\n        /* \"contracts/loops.sol\":599:604  int i */\n      0x00\n        /* \"contracts/loops.sol\":605:606  0 */\n      0x00\n        /* \"contracts/loops.sol\":599:606  int i=0 */\n      swap1\n      pop\n        /* \"contracts/loops.sol\":595:651  for(int i=0;i<10;i++){... */\n    tag_29:\n        /* \"contracts/loops.sol\":609:611  10 */\n      0x0a\n        /* \"contracts/loops.sol\":607:608  i */\n      dup2\n        /* \"contracts/loops.sol\":607:611  i<10 */\n      slt\n        /* \"contracts/loops.sol\":595:651  for(int i=0;i<10;i++){... */\n      iszero\n      tag_30\n      jumpi\n        /* \"contracts/loops.sol\":637:638  1 */\n      0x01\n        /* \"contracts/loops.sol\":633:636  sum */\n      dup3\n        /* \"contracts/loops.sol\":633:638  sum+1 */\n      tag_32\n      swap2\n      swap1\n      tag_21\n      jump\t// in\n    tag_32:\n        /* \"contracts/loops.sol\":629:638  sum=sum+1 */\n      swap2\n      pop\n        /* \"contracts/loops.sol\":612:615  i++ */\n      dup1\n      dup1\n      0x01\n      add\n      swap2\n      pop\n      pop\n        /* \"contracts/loops.sol\":595:651  for(int i=0;i<10;i++){... */\n      jump(tag_29)\n    tag_30:\n      pop\n        /* \"contracts/loops.sol\":667:670  sum */\n      dup1\n        /* \"contracts/loops.sol\":660:670  return sum */\n      swap2\n      pop\n      pop\n        /* \"contracts/loops.sol\":509:684  function forloop() public pure returns(uint){... */\n      swap1\n      jump\t// out\n        /* \"#utility.yul\":7:84   */\n    tag_33:\n        /* \"#utility.yul\":44:51   */\n      0x00\n        /* \"#utility.yul\":73:78   */\n      dup2\n        /* \"#utility.yul\":62:78   */\n      swap1\n      pop\n        /* \"#utility.yul\":7:84   */\n      swap2\n      swap1\n      pop\n      jump\t// out\n        /* \"#utility.yul\":90:208   */\n    tag_34:\n        /* \"#utility.yul\":177:201   */\n      tag_39\n        /* \"#utility.yul\":195:200   */\n      dup2\n        /* \"#utility.yul\":177:201   */\n      tag_33\n      jump\t// in\n    tag_39:\n        /* \"#utility.yul\":172:175   */\n      dup3\n        /* \"#utility.yul\":165:202   */\n      mstore\n        /* \"#utility.yul\":90:208   */\n      pop\n      pop\n      jump\t// out\n        /* \"#utility.yul\":214:436   */\n    tag_9:\n        /* \"#utility.yul\":307:311   */\n      0x00\n        /* \"#utility.yul\":345:347   */\n      0x20\n        /* \"#utility.yul\":334:343   */\n      dup3\n        /* \"#utility.yul\":330:348   */\n      add\n        /* \"#utility.yul\":322:348   */\n      swap1\n      pop\n        /* \"#utility.yul\":358:429   */\n      tag_41\n        /* \"#utility.yul\":426:427   */\n      0x00\n        /* \"#utility.yul\":415:424   */\n      dup4\n        /* \"#utility.yul\":411:428   */\n      add\n        /* \"#utility.yul\":402:408   */\n      dup5\n        /* \"#utility.yul\":358:429   */\n      tag_34\n      jump\t// in\n    tag_41:\n        /* \"#utility.yul\":214:436   */\n      swap3\n      swap2\n      pop\n      pop\n      jump\t// out\n        /* \"#utility.yul\":442:622   */\n    tag_35:\n        /* \"#utility.yul\":490:567   */\n      0x4e487b7100000000000000000000000000000000000000000000000000000000\n        /* \"#utility.yul\":487:488   */\n      0x00\n        /* \"#utility.yul\":480:568   */\n      mstore\n        /* \"#utility.yul\":587:591   */\n      0x11\n        /* \"#utility.yul\":584:585   */\n      0x04\n        /* \"#utility.yul\":577:592   */\n      mstore\n        /* \"#utility.yul\":611:615   */\n      0x24\n        /* \"#utility.yul\":608:609   */\n      0x00\n        /* \"#utility.yul\":601:616   */\n      revert\n        /* \"#utility.yul\":628:819   */\n    tag_21:\n        /* \"#utility.yul\":668:671   */\n      0x00\n        /* \"#utility.yul\":687:707   */\n      tag_44\n        /* \"#utility.yul\":705:706   */\n      dup3\n        /* \"#utility.yul\":687:707   */\n      tag_33\n      jump\t// in\n    tag_44:\n        /* \"#utility.yul\":682:707   */\n      swap2\n      pop\n        /* \"#utility.yul\":721:741   */\n      tag_45\n        /* \"#utility.yul\":739:740   */\n      dup4\n        /* \"#utility.yul\":721:741   */\n      tag_33\n      jump\t// in\n    tag_45:\n        /* \"#utility.yul\":716:741   */\n      swap3\n      pop\n        /* \"#utility.yul\":764:765   */\n      dup3\n        /* \"#utility.yul\":761:762   */\n      dup3\n        /* \"#utility.yul\":757:766   */\n      add\n        /* \"#utility.yul\":750:766   */\n      swap1\n      pop\n        /* \"#utility.yul\":785:788   */\n      dup1\n        /* \"#utility.yul\":782:783   */\n      dup3\n        /* \"#utility.yul\":779:789   */\n      gt\n        /* \"#utility.yul\":776:812   */\n      iszero\n      tag_46\n      jumpi\n        /* \"#utility.yul\":792:810   */\n      tag_47\n      tag_35\n      jump\t// in\n    tag_47:\n        /* \"#utility.yul\":776:812   */\n    tag_46:\n        /* \"#utility.yul\":628:819   */\n      swap3\n      swap2\n      pop\n      pop\n      jump\t// out\n\n    auxdata: 0xa264697066735822122069afc6c71a7321c7d02cfb0ef3fbba3d49a6b24bb8ecbe24cb32c8462d0ad85f64736f6c634300081e0033\n}\n",
				"bytecode": {
					"linkReferences": {},
					"object": "6080604052348015600e575f5ffd5b506102118061001c5f395ff3fe608060405234801561000f575f5ffd5b506004361061003f575f3560e01c806332a37534146100435780634c99946314610061578063bc68f9601461007f575b5f5ffd5b61004b61009d565b6040516100589190610162565b60405180910390f35b6100696100d5565b6040516100769190610162565b60405180910390f35b610087610113565b6040516100949190610162565b60405180910390f35b5f5f5f90505f5f90505b6001826100b491906101a8565b91506001816100c391906101a8565b9050600581106100a757819250505090565b5f5f5f90505f5f90505b600581101561010b576001826100f591906101a8565b915060018161010491906101a8565b90506100df565b819250505090565b5f5f5f90505f5f90505b600a8112156101425760018261013391906101a8565b9150808060010191505061011d565b508091505090565b5f819050919050565b61015c8161014a565b82525050565b5f6020820190506101755f830184610153565b92915050565b7f4e487b71000000000000000000000000000000000000000000000000000000005f52601160045260245ffd5b5f6101b28261014a565b91506101bd8361014a565b92508282019050808211156101d5576101d461017b565b5b9291505056fea264697066735822122069afc6c71a7321c7d02cfb0ef3fbba3d49a6b24bb8ecbe24cb32c8462d0ad85f64736f6c634300081e0033",
					"opcodes": "PUSH1 0x80 PUSH1 0x40 MSTORE CALLVALUE DUP1 ISZERO PUSH1 0xE JUMPI PUSH0 PUSH0 REVERT JUMPDEST POP PUSH2 0x211 DUP1 PUSH2 0x1C PUSH0 CODECOPY PUSH0 RETURN INVALID PUSH1 0x80 PUSH1 0x40 MSTORE CALLVALUE DUP1 ISZERO PUSH2 0xF JUMPI PUSH0 PUSH0 REVERT JUMPDEST POP PUSH1 0x4 CALLDATASIZE LT PUSH2 0x3F JUMPI PUSH0 CALLDATALOAD PUSH1 0xE0 SHR DUP1 PUSH4 0x32A37534 EQ PUSH2 0x43 JUMPI DUP1 PUSH4 0x4C999463 EQ PUSH2 0x61 JUMPI DUP1 PUSH4 0xBC68F960 EQ PUSH2 0x7F JUMPI JUMPDEST PUSH0 PUSH0 REVERT JUMPDEST PUSH2 0x4B PUSH2 0x9D JUMP JUMPDEST PUSH1 0x40 MLOAD PUSH2 0x58 SWAP2 SWAP1 PUSH2 0x162 JUMP JUMPDEST PUSH1 0x40 MLOAD DUP1 SWAP2 SUB SWAP1 RETURN JUMPDEST PUSH2 0x69 PUSH2 0xD5 JUMP JUMPDEST PUSH1 0x40 MLOAD PUSH2 0x76 SWAP2 SWAP1 PUSH2 0x162 JUMP JUMPDEST PUSH1 0x40 MLOAD DUP1 SWAP2 SUB SWAP1 RETURN JUMPDEST PUSH2 0x87 PUSH2 0x113 JUMP JUMPDEST PUSH1 0x40 MLOAD PUSH2 0x94 SWAP2 SWAP1 PUSH2 0x162 JUMP JUMPDEST PUSH1 0x40 MLOAD DUP1 SWAP2 SUB SWAP1 RETURN JUMPDEST PUSH0 PUSH0 PUSH0 SWAP1 POP PUSH0 PUSH0 SWAP1 POP JUMPDEST PUSH1 0x1 DUP3 PUSH2 0xB4 SWAP2 SWAP1 PUSH2 0x1A8 JUMP JUMPDEST SWAP2 POP PUSH1 0x1 DUP2 PUSH2 0xC3 SWAP2 SWAP1 PUSH2 0x1A8 JUMP JUMPDEST SWAP1 POP PUSH1 0x5 DUP2 LT PUSH2 0xA7 JUMPI DUP2 SWAP3 POP POP POP SWAP1 JUMP JUMPDEST PUSH0 PUSH0 PUSH0 SWAP1 POP PUSH0 PUSH0 SWAP1 POP JUMPDEST PUSH1 0x5 DUP2 LT ISZERO PUSH2 0x10B JUMPI PUSH1 0x1 DUP3 PUSH2 0xF5 SWAP2 SWAP1 PUSH2 0x1A8 JUMP JUMPDEST SWAP2 POP PUSH1 0x1 DUP2 PUSH2 0x104 SWAP2 SWAP1 PUSH2 0x1A8 JUMP JUMPDEST SWAP1 POP PUSH2 0xDF JUMP JUMPDEST DUP2 SWAP3 POP POP POP SWAP1 JUMP JUMPDEST PUSH0 PUSH0 PUSH0 SWAP1 POP PUSH0 PUSH0 SWAP1 POP JUMPDEST PUSH1 0xA DUP2 SLT ISZERO PUSH2 0x142 JUMPI PUSH1 0x1 DUP3 PUSH2 0x133 SWAP2 SWAP1 PUSH2 0x1A8 JUMP JUMPDEST SWAP2 POP DUP1 DUP1 PUSH1 0x1 ADD SWAP2 POP POP PUSH2 0x11D JUMP JUMPDEST POP DUP1 SWAP2 POP POP SWAP1 JUMP JUMPDEST PUSH0 DUP2 SWAP1 POP SWAP2 SWAP1 POP JUMP JUMPDEST PUSH2 0x15C DUP2 PUSH2 0x14A JUMP JUMPDEST DUP3 MSTORE POP POP JUMP JUMPDEST PUSH0 PUSH1 0x20 DUP3 ADD SWAP1 POP PUSH2 0x175 PUSH0 DUP4 ADD DUP5 PUSH2 0x153 JUMP JUMPDEST SWAP3 SWAP2 POP POP JUMP JUMPDEST PUSH32 0x4E487B7100000000000000000000000000000000000000000000000000000000 PUSH0 MSTORE PUSH1 0x11 PUSH1 0x4 MSTORE PUSH1 0x24 PUSH0 REVERT JUMPDEST PUSH0 PUSH2 0x1B2 DUP3 PUSH2 0x14A JUMP JUMPDEST SWAP2 POP PUSH2 0x1BD DUP4 PUSH2 0x14A JUMP JUMPDEST SWAP3 POP DUP3 DUP3 ADD SWAP1 POP DUP1 DUP3 GT ISZERO PUSH2 0x1D5 JUMPI PUSH2 0x1D4 PUSH2 0x17B JUMP JUMPDEST JUMPDEST SWAP3 SWAP2 POP POP JUMP INVALID LOG2 PUSH5 0x6970667358 0x22 SLT KECCAK256 PUSH10 0xAFC6C71A7321C7D02CFB 0xE RETURN EXTSTATICCALL 0xBA RETURNDATASIZE BLOBHASH 0xA6 0xB2 0x4B 0xB8 EOFCREATE 0xBE 0x24 0xCB ORIGIN 0xC8 CHAINID 0x2D EXP 0xD8 PUSH0 PUSH5 0x736F6C6343 STOP ADDMOD 0x1E STOP CALLER "
				},
				"gasEstimates": {
					"creation": {
						"codeDepositCost": "105800",
						"executionCost": "151",
						"totalCost": "105951"
					},
					"external": {
						"dowhileloop()": "infinite",
						"forloop()": "infinite",
						"whileloop()": "infinite"
					}
				},
				"methodIdentifiers": {
					"dowhileloop()": "32a37534",
					"forloop()": "bc68f960",
					"whileloop()": "4c999463"
				}
			},
			"storageLayout": {
				"storage": [],
				"types": null
			},
			"userdoc": {
				"kind": "user",
				"methods": {},
				"version": 1
			}
		}
	}
}