{
	"contracts/struct_datatype.sol": {
		"struct_datatype": {
			"abi": [
				{
					"inputs": [],
					"name": "getter",
					"outputs": [
						{
							"components": [
								{
									"internalType": "string",
									"name": "name",
									"type": "string"
								},
								{
									"internalType": "uint256",
									"name": "roll",
									"type": "uint256"
								},
								{
									"internalType": "bool",
									"name": "pass",
									"type": "bool"
								}
							],
							"internalType": "struct struct_datatype.student",
							"name": "",
							"type": "tuple"
						}
					],
					"stateMutability": "view",
					"type": "function"
				},
				{
					"inputs": [
						{
							"internalType": "string",
							"name": "_name",
							"type": "string"
						},
						{
							"internalType": "uint256",
							"name": "_roll",
							"type": "uint256"
						},
						{
							"internalType": "bool",
							"name": "_pass",
							"type": "bool"
						}
					],
					"name": "insert",
					"outputs": [],
					"stateMutability": "nonpayable",
					"type": "function"
				},
				{
					"inputs": [],
					"name": "s1",
					"outputs": [
						{
							"internalType": "string",
							"name": "name",
							"type": "string"
						},
						{
							"internalType": "uint256",
							"name": "roll",
							"type": "uint256"
						},
						{
							"internalType": "bool",
							"name": "pass",
							"type": "bool"
						}
					],
					"stateMutability": "view",
					"type": "function"
				}
			],
			"devdoc": {
				"kind": "dev",
				"methods": {},
				"version": 1
			},
			"evm": {
				"assembly": "    /* \"contracts/struct_datatype.sol\":278:880  contract struct_datatype{... */\n  mstore(0x40, 0x80)\n  callvalue\n  dup1\n  iszero\n  tag_1\n  jumpi\n  revert(0x00, 0x00)\ntag_1:\n  pop\n  dataSize(sub_0)\n  dup1\n  dataOffset(sub_0)\n  0x00\n  codecopy\n  0x00\n  return\nstop\n\nsub_0: assembly {\n        /* \"contracts/struct_datatype.sol\":278:880  contract struct_datatype{... */\n      mstore(0x40, 0x80)\n      callvalue\n      dup1\n      iszero\n      tag_1\n      jumpi\n      revert(0x00, 0x00)\n    tag_1:\n      pop\n      jumpi(tag_2, lt(calldatasize, 0x04))\n      shr(0xe0, calldataload(0x00))\n      dup1\n      0x6cc014de\n      eq\n      tag_3\n      jumpi\n      dup1\n      0x993a04b7\n      eq\n      tag_4\n      jumpi\n      dup1\n      0xc30655a2\n      eq\n      tag_5\n      jumpi\n    tag_2:\n      revert(0x00, 0x00)\n        /* \"contracts/struct_datatype.sol\":411:428  student public s1 */\n    tag_3:\n      tag_6\n      tag_7\n      jump\t// in\n    tag_6:\n      mload(0x40)\n      tag_8\n      swap4\n      swap3\n      swap2\n      swap1\n      tag_9\n      jump\t// in\n    tag_8:\n      mload(0x40)\n      dup1\n      swap2\n      sub\n      swap1\n      return\n        /* \"contracts/struct_datatype.sol\":710:871  function getter() public view returns(student memory){... */\n    tag_4:\n      tag_10\n      tag_11\n      jump\t// in\n    tag_10:\n      mload(0x40)\n      tag_12\n      swap2\n      swap1\n      tag_13\n      jump\t// in\n    tag_12:\n      mload(0x40)\n      dup1\n      swap2\n      sub\n      swap1\n      return\n        /* \"contracts/struct_datatype.sol\":437:702  function insert(string memory _name, uint _roll, bool _pass) public {... */\n    tag_5:\n      tag_14\n      0x04\n      dup1\n      calldatasize\n      sub\n      dup2\n      add\n      swap1\n      tag_15\n      swap2\n      swap1\n      tag_16\n      jump\t// in\n    tag_15:\n      tag_17\n      jump\t// in\n    tag_14:\n      stop\n        /* \"contracts/struct_datatype.sol\":411:428  student public s1 */\n    tag_7:\n      0x00\n      dup1\n      0x00\n      add\n      dup1\n      sload\n      tag_18\n      swap1\n      tag_19\n      jump\t// in\n    tag_18:\n      dup1\n      0x1f\n      add\n      0x20\n      dup1\n      swap2\n      div\n      mul\n      0x20\n      add\n      mload(0x40)\n      swap1\n      dup2\n      add\n      0x40\n      mstore\n      dup1\n      swap3\n      swap2\n      swap1\n      dup2\n      dup2\n      mstore\n      0x20\n      add\n      dup3\n      dup1\n      sload\n      tag_20\n      swap1\n      tag_19\n      jump\t// in\n    tag_20:\n      dup1\n      iszero\n      tag_21\n      jumpi\n      dup1\n      0x1f\n      lt\n      tag_22\n      jumpi\n      0x0100\n      dup1\n      dup4\n      sload\n      div\n      mul\n      dup4\n      mstore\n      swap2\n      0x20\n      add\n      swap2\n      jump(tag_21)\n    tag_22:\n      dup3\n      add\n      swap2\n      swap1\n      0x00\n      mstore\n      keccak256(0x00, 0x20)\n      swap1\n    tag_23:\n      dup2\n      sload\n      dup2\n      mstore\n      swap1\n      0x01\n      add\n      swap1\n      0x20\n      add\n      dup1\n      dup4\n      gt\n      tag_23\n      jumpi\n      dup3\n      swap1\n      sub\n      0x1f\n      and\n      dup3\n      add\n      swap2\n    tag_21:\n      pop\n      pop\n      pop\n      pop\n      pop\n      swap1\n      dup1\n      0x01\n      add\n      sload\n      swap1\n      dup1\n      0x02\n      add\n      0x00\n      swap1\n      sload\n      swap1\n      0x0100\n      exp\n      swap1\n      div\n      0xff\n      and\n      swap1\n      pop\n      dup4\n      jump\t// out\n        /* \"contracts/struct_datatype.sol\":710:871  function getter() public view returns(student memory){... */\n    tag_11:\n        /* \"contracts/struct_datatype.sol\":748:762  student memory */\n      tag_24\n      tag_25\n      jump\t// in\n    tag_24:\n        /* \"contracts/struct_datatype.sol\":783:785  s1 */\n      0x00\n        /* \"contracts/struct_datatype.sol\":776:785  return s1 */\n      mload(0x40)\n      dup1\n      0x60\n      add\n      0x40\n      mstore\n      swap1\n      dup2\n      0x00\n      dup3\n      add\n      dup1\n      sload\n      tag_27\n      swap1\n      tag_19\n      jump\t// in\n    tag_27:\n      dup1\n      0x1f\n      add\n      0x20\n      dup1\n      swap2\n      div\n      mul\n      0x20\n      add\n      mload(0x40)\n      swap1\n      dup2\n      add\n      0x40\n      mstore\n      dup1\n      swap3\n      swap2\n      swap1\n      dup2\n      dup2\n      mstore\n      0x20\n      add\n      dup3\n      dup1\n      sload\n      tag_28\n      swap1\n      tag_19\n      jump\t// in\n    tag_28:\n      dup1\n      iszero\n      tag_29\n      jumpi\n      dup1\n      0x1f\n      lt\n      tag_30\n      jumpi\n      0x0100\n      dup1\n      dup4\n      sload\n      div\n      mul\n      dup4\n      mstore\n      swap2\n      0x20\n      add\n      swap2\n      jump(tag_29)\n    tag_30:\n      dup3\n      add\n      swap2\n      swap1\n      0x00\n      mstore\n      keccak256(0x00, 0x20)\n      swap1\n    tag_31:\n      dup2\n      sload\n      dup2\n      mstore\n      swap1\n      0x01\n      add\n      swap1\n      0x20\n      add\n      dup1\n      dup4\n      gt\n      tag_31\n      jumpi\n      dup3\n      swap1\n      sub\n      0x1f\n      and\n      dup3\n      add\n      swap2\n    tag_29:\n      pop\n      pop\n      pop\n      pop\n      pop\n      dup2\n      mstore\n      0x20\n      add\n      0x01\n      dup3\n      add\n      sload\n      dup2\n      mstore\n      0x20\n      add\n      0x02\n      dup3\n      add\n      0x00\n      swap1\n      sload\n      swap1\n      0x0100\n      exp\n      swap1\n      div\n      0xff\n      and\n      iszero\n      iszero\n      iszero\n      iszero\n      dup2\n      mstore\n      pop\n      pop\n      swap1\n      pop\n        /* \"contracts/struct_datatype.sol\":710:871  function getter() public view returns(student memory){... */\n      swap1\n      jump\t// out\n        /* \"contracts/struct_datatype.sol\":437:702  function insert(string memory _name, uint _roll, bool _pass) public {... */\n    tag_17:\n        /* \"contracts/struct_datatype.sol\":666:692  student(_name,_roll,_pass) */\n      mload(0x40)\n      dup1\n      0x60\n      add\n      0x40\n      mstore\n      dup1\n        /* \"contracts/struct_datatype.sol\":674:679  _name */\n      dup5\n        /* \"contracts/struct_datatype.sol\":666:692  student(_name,_roll,_pass) */\n      dup2\n      mstore\n      0x20\n      add\n        /* \"contracts/struct_datatype.sol\":680:685  _roll */\n      dup4\n        /* \"contracts/struct_datatype.sol\":666:692  student(_name,_roll,_pass) */\n      dup2\n      mstore\n      0x20\n      add\n        /* \"contracts/struct_datatype.sol\":686:691  _pass */\n      dup3\n        /* \"contracts/struct_datatype.sol\":666:692  student(_name,_roll,_pass) */\n      iszero\n      iszero\n      dup2\n      mstore\n      pop\n        /* \"contracts/struct_datatype.sol\":663:665  s1 */\n      0x00\n        /* \"contracts/struct_datatype.sol\":663:692  s1=student(_name,_roll,_pass) */\n      0x00\n      dup3\n      add\n      mload\n      dup2\n      0x00\n      add\n      swap1\n      dup2\n      tag_33\n      swap2\n      swap1\n      tag_34\n      jump\t// in\n    tag_33:\n      pop\n      0x20\n      dup3\n      add\n      mload\n      dup2\n      0x01\n      add\n      sstore\n      0x40\n      dup3\n      add\n      mload\n      dup2\n      0x02\n      add\n      exp(0x0100, 0x00)\n      dup2\n      sload\n      dup2\n      0xff\n      mul\n      not\n      and\n      swap1\n      dup4\n      iszero\n      iszero\n      mul\n      or\n      swap1\n      sstore\n      pop\n      swap1\n      pop\n      pop\n        /* \"contracts/struct_datatype.sol\":437:702  function insert(string memory _name, uint _roll, bool _pass) public {... */\n      pop\n      pop\n      pop\n      jump\t// out\n    tag_25:\n      mload(0x40)\n      dup1\n      0x60\n      add\n      0x40\n      mstore\n      dup1\n      0x60\n      dup2\n      mstore\n      0x20\n      add\n      0x00\n      dup2\n      mstore\n      0x20\n      add\n      iszero(iszero(0x00))\n      dup2\n      mstore\n      pop\n      swap1\n      jump\t// out\n        /* \"#utility.yul\":7:106   */\n    tag_35:\n        /* \"#utility.yul\":59:65   */\n      0x00\n        /* \"#utility.yul\":93:98   */\n      dup2\n        /* \"#utility.yul\":87:99   */\n      mload\n        /* \"#utility.yul\":77:99   */\n      swap1\n      pop\n        /* \"#utility.yul\":7:106   */\n      swap2\n      swap1\n      pop\n      jump\t// out\n        /* \"#utility.yul\":112:281   */\n    tag_36:\n        /* \"#utility.yul\":196:207   */\n      0x00\n        /* \"#utility.yul\":230:236   */\n      dup3\n        /* \"#utility.yul\":225:228   */\n      dup3\n        /* \"#utility.yul\":218:237   */\n      mstore\n        /* \"#utility.yul\":270:274   */\n      0x20\n        /* \"#utility.yul\":265:268   */\n      dup3\n        /* \"#utility.yul\":261:275   */\n      add\n        /* \"#utility.yul\":246:275   */\n      swap1\n      pop\n        /* \"#utility.yul\":112:281   */\n      swap3\n      swap2\n      pop\n      pop\n      jump\t// out\n        /* \"#utility.yul\":287:426   */\n    tag_37:\n        /* \"#utility.yul\":376:382   */\n      dup3\n        /* \"#utility.yul\":371:374   */\n      dup2\n        /* \"#utility.yul\":366:369   */\n      dup4\n        /* \"#utility.yul\":360:383   */\n      mcopy\n        /* \"#utility.yul\":417:418   */\n      0x00\n        /* \"#utility.yul\":408:414   */\n      dup4\n        /* \"#utility.yul\":403:406   */\n      dup4\n        /* \"#utility.yul\":399:415   */\n      add\n        /* \"#utility.yul\":392:419   */\n      mstore\n        /* \"#utility.yul\":287:426   */\n      pop\n      pop\n      pop\n      jump\t// out\n        /* \"#utility.yul\":432:534   */\n    tag_38:\n        /* \"#utility.yul\":473:479   */\n      0x00\n        /* \"#utility.yul\":524:526   */\n      0x1f\n        /* \"#utility.yul\":520:527   */\n      not\n        /* \"#utility.yul\":515:517   */\n      0x1f\n        /* \"#utility.yul\":508:513   */\n      dup4\n        /* \"#utility.yul\":504:518   */\n      add\n        /* \"#utility.yul\":500:528   */\n      and\n        /* \"#utility.yul\":490:528   */\n      swap1\n      pop\n        /* \"#utility.yul\":432:534   */\n      swap2\n      swap1\n      pop\n      jump\t// out\n        /* \"#utility.yul\":540:917   */\n    tag_39:\n        /* \"#utility.yul\":628:631   */\n      0x00\n        /* \"#utility.yul\":656:695   */\n      tag_87\n        /* \"#utility.yul\":689:694   */\n      dup3\n        /* \"#utility.yul\":656:695   */\n      tag_35\n      jump\t// in\n    tag_87:\n        /* \"#utility.yul\":711:782   */\n      tag_88\n        /* \"#utility.yul\":775:781   */\n      dup2\n        /* \"#utility.yul\":770:773   */\n      dup6\n        /* \"#utility.yul\":711:782   */\n      tag_36\n      jump\t// in\n    tag_88:\n        /* \"#utility.yul\":704:782   */\n      swap4\n      pop\n        /* \"#utility.yul\":791:856   */\n      tag_89\n        /* \"#utility.yul\":849:855   */\n      dup2\n        /* \"#utility.yul\":844:847   */\n      dup6\n        /* \"#utility.yul\":837:841   */\n      0x20\n        /* \"#utility.yul\":830:835   */\n      dup7\n        /* \"#utility.yul\":826:842   */\n      add\n        /* \"#utility.yul\":791:856   */\n      tag_37\n      jump\t// in\n    tag_89:\n        /* \"#utility.yul\":881:910   */\n      tag_90\n        /* \"#utility.yul\":903:909   */\n      dup2\n        /* \"#utility.yul\":881:910   */\n      tag_38\n      jump\t// in\n    tag_90:\n        /* \"#utility.yul\":876:879   */\n      dup5\n        /* \"#utility.yul\":872:911   */\n      add\n        /* \"#utility.yul\":865:911   */\n      swap2\n      pop\n        /* \"#utility.yul\":632:917   */\n      pop\n        /* \"#utility.yul\":540:917   */\n      swap3\n      swap2\n      pop\n      pop\n      jump\t// out\n        /* \"#utility.yul\":923:1000   */\n    tag_40:\n        /* \"#utility.yul\":960:967   */\n      0x00\n        /* \"#utility.yul\":989:994   */\n      dup2\n        /* \"#utility.yul\":978:994   */\n      swap1\n      pop\n        /* \"#utility.yul\":923:1000   */\n      swap2\n      swap1\n      pop\n      jump\t// out\n        /* \"#utility.yul\":1006:1124   */\n    tag_41:\n        /* \"#utility.yul\":1093:1117   */\n      tag_93\n        /* \"#utility.yul\":1111:1116   */\n      dup2\n        /* \"#utility.yul\":1093:1117   */\n      tag_40\n      jump\t// in\n    tag_93:\n        /* \"#utility.yul\":1088:1091   */\n      dup3\n        /* \"#utility.yul\":1081:1118   */\n      mstore\n        /* \"#utility.yul\":1006:1124   */\n      pop\n      pop\n      jump\t// out\n        /* \"#utility.yul\":1130:1220   */\n    tag_42:\n        /* \"#utility.yul\":1164:1171   */\n      0x00\n        /* \"#utility.yul\":1207:1212   */\n      dup2\n        /* \"#utility.yul\":1200:1213   */\n      iszero\n        /* \"#utility.yul\":1193:1214   */\n      iszero\n        /* \"#utility.yul\":1182:1214   */\n      swap1\n      pop\n        /* \"#utility.yul\":1130:1220   */\n      swap2\n      swap1\n      pop\n      jump\t// out\n        /* \"#utility.yul\":1226:1335   */\n    tag_43:\n        /* \"#utility.yul\":1307:1328   */\n      tag_96\n        /* \"#utility.yul\":1322:1327   */\n      dup2\n        /* \"#utility.yul\":1307:1328   */\n      tag_42\n      jump\t// in\n    tag_96:\n        /* \"#utility.yul\":1302:1305   */\n      dup3\n        /* \"#utility.yul\":1295:1329   */\n      mstore\n        /* \"#utility.yul\":1226:1335   */\n      pop\n      pop\n      jump\t// out\n        /* \"#utility.yul\":1341:1862   */\n    tag_9:\n        /* \"#utility.yul\":1504:1508   */\n      0x00\n        /* \"#utility.yul\":1542:1544   */\n      0x60\n        /* \"#utility.yul\":1531:1540   */\n      dup3\n        /* \"#utility.yul\":1527:1545   */\n      add\n        /* \"#utility.yul\":1519:1545   */\n      swap1\n      pop\n        /* \"#utility.yul\":1591:1600   */\n      dup2\n        /* \"#utility.yul\":1585:1589   */\n      dup2\n        /* \"#utility.yul\":1581:1601   */\n      sub\n        /* \"#utility.yul\":1577:1578   */\n      0x00\n        /* \"#utility.yul\":1566:1575   */\n      dup4\n        /* \"#utility.yul\":1562:1579   */\n      add\n        /* \"#utility.yul\":1555:1602   */\n      mstore\n        /* \"#utility.yul\":1619:1697   */\n      tag_98\n        /* \"#utility.yul\":1692:1696   */\n      dup2\n        /* \"#utility.yul\":1683:1689   */\n      dup7\n        /* \"#utility.yul\":1619:1697   */\n      tag_39\n      jump\t// in\n    tag_98:\n        /* \"#utility.yul\":1611:1697   */\n      swap1\n      pop\n        /* \"#utility.yul\":1707:1779   */\n      tag_99\n        /* \"#utility.yul\":1775:1777   */\n      0x20\n        /* \"#utility.yul\":1764:1773   */\n      dup4\n        /* \"#utility.yul\":1760:1778   */\n      add\n        /* \"#utility.yul\":1751:1757   */\n      dup6\n        /* \"#utility.yul\":1707:1779   */\n      tag_41\n      jump\t// in\n    tag_99:\n        /* \"#utility.yul\":1789:1855   */\n      tag_100\n        /* \"#utility.yul\":1851:1853   */\n      0x40\n        /* \"#utility.yul\":1840:1849   */\n      dup4\n        /* \"#utility.yul\":1836:1854   */\n      add\n        /* \"#utility.yul\":1827:1833   */\n      dup5\n        /* \"#utility.yul\":1789:1855   */\n      tag_43\n      jump\t// in\n    tag_100:\n        /* \"#utility.yul\":1341:1862   */\n      swap5\n      swap4\n      pop\n      pop\n      pop\n      pop\n      jump\t// out\n        /* \"#utility.yul\":1868:2027   */\n    tag_44:\n        /* \"#utility.yul\":1942:1953   */\n      0x00\n        /* \"#utility.yul\":1976:1982   */\n      dup3\n        /* \"#utility.yul\":1971:1974   */\n      dup3\n        /* \"#utility.yul\":1964:1983   */\n      mstore\n        /* \"#utility.yul\":2016:2020   */\n      0x20\n        /* \"#utility.yul\":2011:2014   */\n      dup3\n        /* \"#utility.yul\":2007:2021   */\n      add\n        /* \"#utility.yul\":1992:2021   */\n      swap1\n      pop\n        /* \"#utility.yul\":1868:2027   */\n      swap3\n      swap2\n      pop\n      pop\n      jump\t// out\n        /* \"#utility.yul\":2033:2390   */\n    tag_45:\n        /* \"#utility.yul\":2111:2114   */\n      0x00\n        /* \"#utility.yul\":2139:2178   */\n      tag_103\n        /* \"#utility.yul\":2172:2177   */\n      dup3\n        /* \"#utility.yul\":2139:2178   */\n      tag_35\n      jump\t// in\n    tag_103:\n        /* \"#utility.yul\":2194:2255   */\n      tag_104\n        /* \"#utility.yul\":2248:2254   */\n      dup2\n        /* \"#utility.yul\":2243:2246   */\n      dup6\n        /* \"#utility.yul\":2194:2255   */\n      tag_44\n      jump\t// in\n    tag_104:\n        /* \"#utility.yul\":2187:2255   */\n      swap4\n      pop\n        /* \"#utility.yul\":2264:2329   */\n      tag_105\n        /* \"#utility.yul\":2322:2328   */\n      dup2\n        /* \"#utility.yul\":2317:2320   */\n      dup6\n        /* \"#utility.yul\":2310:2314   */\n      0x20\n        /* \"#utility.yul\":2303:2308   */\n      dup7\n        /* \"#utility.yul\":2299:2315   */\n      add\n        /* \"#utility.yul\":2264:2329   */\n      tag_37\n      jump\t// in\n    tag_105:\n        /* \"#utility.yul\":2354:2383   */\n      tag_106\n        /* \"#utility.yul\":2376:2382   */\n      dup2\n        /* \"#utility.yul\":2354:2383   */\n      tag_38\n      jump\t// in\n    tag_106:\n        /* \"#utility.yul\":2349:2352   */\n      dup5\n        /* \"#utility.yul\":2345:2384   */\n      add\n        /* \"#utility.yul\":2338:2384   */\n      swap2\n      pop\n        /* \"#utility.yul\":2115:2390   */\n      pop\n        /* \"#utility.yul\":2033:2390   */\n      swap3\n      swap2\n      pop\n      pop\n      jump\t// out\n        /* \"#utility.yul\":2396:2504   */\n    tag_46:\n        /* \"#utility.yul\":2473:2497   */\n      tag_108\n        /* \"#utility.yul\":2491:2496   */\n      dup2\n        /* \"#utility.yul\":2473:2497   */\n      tag_40\n      jump\t// in\n    tag_108:\n        /* \"#utility.yul\":2468:2471   */\n      dup3\n        /* \"#utility.yul\":2461:2498   */\n      mstore\n        /* \"#utility.yul\":2396:2504   */\n      pop\n      pop\n      jump\t// out\n        /* \"#utility.yul\":2510:2609   */\n    tag_47:\n        /* \"#utility.yul\":2581:2602   */\n      tag_110\n        /* \"#utility.yul\":2596:2601   */\n      dup2\n        /* \"#utility.yul\":2581:2602   */\n      tag_42\n      jump\t// in\n    tag_110:\n        /* \"#utility.yul\":2576:2579   */\n      dup3\n        /* \"#utility.yul\":2569:2603   */\n      mstore\n        /* \"#utility.yul\":2510:2609   */\n      pop\n      pop\n      jump\t// out\n        /* \"#utility.yul\":2687:3455   */\n    tag_48:\n        /* \"#utility.yul\":2800:2803   */\n      0x00\n        /* \"#utility.yul\":2836:2840   */\n      0x60\n        /* \"#utility.yul\":2831:2834   */\n      dup4\n        /* \"#utility.yul\":2827:2841   */\n      add\n        /* \"#utility.yul\":2923:2927   */\n      0x00\n        /* \"#utility.yul\":2916:2921   */\n      dup4\n        /* \"#utility.yul\":2912:2928   */\n      add\n        /* \"#utility.yul\":2906:2929   */\n      mload\n        /* \"#utility.yul\":2976:2979   */\n      dup5\n        /* \"#utility.yul\":2970:2974   */\n      dup3\n        /* \"#utility.yul\":2966:2980   */\n      sub\n        /* \"#utility.yul\":2959:2963   */\n      0x00\n        /* \"#utility.yul\":2954:2957   */\n      dup7\n        /* \"#utility.yul\":2950:2964   */\n      add\n        /* \"#utility.yul\":2943:2981   */\n      mstore\n        /* \"#utility.yul\":3002:3075   */\n      tag_112\n        /* \"#utility.yul\":3070:3074   */\n      dup3\n        /* \"#utility.yul\":3056:3068   */\n      dup3\n        /* \"#utility.yul\":3002:3075   */\n      tag_45\n      jump\t// in\n    tag_112:\n        /* \"#utility.yul\":2994:3075   */\n      swap2\n      pop\n        /* \"#utility.yul\":2851:3086   */\n      pop\n        /* \"#utility.yul\":3168:3172   */\n      0x20\n        /* \"#utility.yul\":3161:3166   */\n      dup4\n        /* \"#utility.yul\":3157:3173   */\n      add\n        /* \"#utility.yul\":3151:3174   */\n      mload\n        /* \"#utility.yul\":3187:3250   */\n      tag_113\n        /* \"#utility.yul\":3244:3248   */\n      0x20\n        /* \"#utility.yul\":3239:3242   */\n      dup7\n        /* \"#utility.yul\":3235:3249   */\n      add\n        /* \"#utility.yul\":3221:3233   */\n      dup3\n        /* \"#utility.yul\":3187:3250   */\n      tag_46\n      jump\t// in\n    tag_113:\n        /* \"#utility.yul\":3096:3260   */\n      pop\n        /* \"#utility.yul\":3342:3346   */\n      0x40\n        /* \"#utility.yul\":3335:3340   */\n      dup4\n        /* \"#utility.yul\":3331:3347   */\n      add\n        /* \"#utility.yul\":3325:3348   */\n      mload\n        /* \"#utility.yul\":3361:3418   */\n      tag_114\n        /* \"#utility.yul\":3412:3416   */\n      0x40\n        /* \"#utility.yul\":3407:3410   */\n      dup7\n        /* \"#utility.yul\":3403:3417   */\n      add\n        /* \"#utility.yul\":3389:3401   */\n      dup3\n        /* \"#utility.yul\":3361:3418   */\n      tag_47\n      jump\t// in\n    tag_114:\n        /* \"#utility.yul\":3270:3428   */\n      pop\n        /* \"#utility.yul\":3445:3449   */\n      dup1\n        /* \"#utility.yul\":3438:3449   */\n      swap2\n      pop\n        /* \"#utility.yul\":2805:3455   */\n      pop\n        /* \"#utility.yul\":2687:3455   */\n      swap3\n      swap2\n      pop\n      pop\n      jump\t// out\n        /* \"#utility.yul\":3461:3822   */\n    tag_13:\n        /* \"#utility.yul\":3598:3602   */\n      0x00\n        /* \"#utility.yul\":3636:3638   */\n      0x20\n        /* \"#utility.yul\":3625:3634   */\n      dup3\n        /* \"#utility.yul\":3621:3639   */\n      add\n        /* \"#utility.yul\":3613:3639   */\n      swap1\n      pop\n        /* \"#utility.yul\":3685:3694   */\n      dup2\n        /* \"#utility.yul\":3679:3683   */\n      dup2\n        /* \"#utility.yul\":3675:3695   */\n      sub\n        /* \"#utility.yul\":3671:3672   */\n      0x00\n        /* \"#utility.yul\":3660:3669   */\n      dup4\n        /* \"#utility.yul\":3656:3673   */\n      add\n        /* \"#utility.yul\":3649:3696   */\n      mstore\n        /* \"#utility.yul\":3713:3815   */\n      tag_116\n        /* \"#utility.yul\":3810:3814   */\n      dup2\n        /* \"#utility.yul\":3801:3807   */\n      dup5\n        /* \"#utility.yul\":3713:3815   */\n      tag_48\n      jump\t// in\n    tag_116:\n        /* \"#utility.yul\":3705:3815   */\n      swap1\n      pop\n        /* \"#utility.yul\":3461:3822   */\n      swap3\n      swap2\n      pop\n      pop\n      jump\t// out\n        /* \"#utility.yul\":3828:3903   */\n    tag_49:\n        /* \"#utility.yul\":3861:3867   */\n      0x00\n        /* \"#utility.yul\":3894:3896   */\n      0x40\n        /* \"#utility.yul\":3888:3897   */\n      mload\n        /* \"#utility.yul\":3878:3897   */\n      swap1\n      pop\n        /* \"#utility.yul\":3828:3903   */\n      swap1\n      jump\t// out\n        /* \"#utility.yul\":3909:4026   */\n    tag_50:\n        /* \"#utility.yul\":4018:4019   */\n      0x00\n        /* \"#utility.yul\":4015:4016   */\n      0x00\n        /* \"#utility.yul\":4008:4020   */\n      revert\n        /* \"#utility.yul\":4032:4149   */\n    tag_51:\n        /* \"#utility.yul\":4141:4142   */\n      0x00\n        /* \"#utility.yul\":4138:4139   */\n      0x00\n        /* \"#utility.yul\":4131:4143   */\n      revert\n        /* \"#utility.yul\":4155:4272   */\n    tag_52:\n        /* \"#utility.yul\":4264:4265   */\n      0x00\n        /* \"#utility.yul\":4261:4262   */\n      0x00\n        /* \"#utility.yul\":4254:4266   */\n      revert\n        /* \"#utility.yul\":4278:4395   */\n    tag_53:\n        /* \"#utility.yul\":4387:4388   */\n      0x00\n        /* \"#utility.yul\":4384:4385   */\n      0x00\n        /* \"#utility.yul\":4377:4389   */\n      revert\n        /* \"#utility.yul\":4401:4581   */\n    tag_54:\n        /* \"#utility.yul\":4449:4526   */\n      0x4e487b7100000000000000000000000000000000000000000000000000000000\n        /* \"#utility.yul\":4446:4447   */\n      0x00\n        /* \"#utility.yul\":4439:4527   */\n      mstore\n        /* \"#utility.yul\":4546:4550   */\n      0x41\n        /* \"#utility.yul\":4543:4544   */\n      0x04\n        /* \"#utility.yul\":4536:4551   */\n      mstore\n        /* \"#utility.yul\":4570:4574   */\n      0x24\n        /* \"#utility.yul\":4567:4568   */\n      0x00\n        /* \"#utility.yul\":4560:4575   */\n      revert\n        /* \"#utility.yul\":4587:4868   */\n    tag_55:\n        /* \"#utility.yul\":4670:4697   */\n      tag_124\n        /* \"#utility.yul\":4692:4696   */\n      dup3\n        /* \"#utility.yul\":4670:4697   */\n      tag_38\n      jump\t// in\n    tag_124:\n        /* \"#utility.yul\":4662:4668   */\n      dup2\n        /* \"#utility.yul\":4658:4698   */\n      add\n        /* \"#utility.yul\":4800:4806   */\n      dup2\n        /* \"#utility.yul\":4788:4798   */\n      dup2\n        /* \"#utility.yul\":4785:4807   */\n      lt\n        /* \"#utility.yul\":4764:4782   */\n      0xffffffffffffffff\n        /* \"#utility.yul\":4752:4762   */\n      dup3\n        /* \"#utility.yul\":4749:4783   */\n      gt\n        /* \"#utility.yul\":4746:4808   */\n      or\n        /* \"#utility.yul\":4743:4831   */\n      iszero\n      tag_125\n      jumpi\n        /* \"#utility.yul\":4811:4829   */\n      tag_126\n      tag_54\n      jump\t// in\n    tag_126:\n        /* \"#utility.yul\":4743:4831   */\n    tag_125:\n        /* \"#utility.yul\":4851:4861   */\n      dup1\n        /* \"#utility.yul\":4847:4849   */\n      0x40\n        /* \"#utility.yul\":4840:4862   */\n      mstore\n        /* \"#utility.yul\":4630:4868   */\n      pop\n        /* \"#utility.yul\":4587:4868   */\n      pop\n      pop\n      jump\t// out\n        /* \"#utility.yul\":4874:5003   */\n    tag_56:\n        /* \"#utility.yul\":4908:4914   */\n      0x00\n        /* \"#utility.yul\":4935:4955   */\n      tag_128\n      tag_49\n      jump\t// in\n    tag_128:\n        /* \"#utility.yul\":4925:4955   */\n      swap1\n      pop\n        /* \"#utility.yul\":4964:4997   */\n      tag_129\n        /* \"#utility.yul\":4992:4996   */\n      dup3\n        /* \"#utility.yul\":4984:4990   */\n      dup3\n        /* \"#utility.yul\":4964:4997   */\n      tag_55\n      jump\t// in\n    tag_129:\n        /* \"#utility.yul\":4874:5003   */\n      swap2\n      swap1\n      pop\n      jump\t// out\n        /* \"#utility.yul\":5009:5317   */\n    tag_57:\n        /* \"#utility.yul\":5071:5075   */\n      0x00\n        /* \"#utility.yul\":5161:5179   */\n      0xffffffffffffffff\n        /* \"#utility.yul\":5153:5159   */\n      dup3\n        /* \"#utility.yul\":5150:5180   */\n      gt\n        /* \"#utility.yul\":5147:5203   */\n      iszero\n      tag_131\n      jumpi\n        /* \"#utility.yul\":5183:5201   */\n      tag_132\n      tag_54\n      jump\t// in\n    tag_132:\n        /* \"#utility.yul\":5147:5203   */\n    tag_131:\n        /* \"#utility.yul\":5221:5250   */\n      tag_133\n        /* \"#utility.yul\":5243:5249   */\n      dup3\n        /* \"#utility.yul\":5221:5250   */\n      tag_38\n      jump\t// in\n    tag_133:\n        /* \"#utility.yul\":5213:5250   */\n      swap1\n      pop\n        /* \"#utility.yul\":5305:5309   */\n      0x20\n        /* \"#utility.yul\":5299:5303   */\n      dup2\n        /* \"#utility.yul\":5295:5310   */\n      add\n        /* \"#utility.yul\":5287:5310   */\n      swap1\n      pop\n        /* \"#utility.yul\":5009:5317   */\n      swap2\n      swap1\n      pop\n      jump\t// out\n        /* \"#utility.yul\":5323:5471   */\n    tag_58:\n        /* \"#utility.yul\":5421:5427   */\n      dup3\n        /* \"#utility.yul\":5416:5419   */\n      dup2\n        /* \"#utility.yul\":5411:5414   */\n      dup4\n        /* \"#utility.yul\":5398:5428   */\n      calldatacopy\n        /* \"#utility.yul\":5462:5463   */\n      0x00\n        /* \"#utility.yul\":5453:5459   */\n      dup4\n        /* \"#utility.yul\":5448:5451   */\n      dup4\n        /* \"#utility.yul\":5444:5460   */\n      add\n        /* \"#utility.yul\":5437:5464   */\n      mstore\n        /* \"#utility.yul\":5323:5471   */\n      pop\n      pop\n      pop\n      jump\t// out\n        /* \"#utility.yul\":5477:5902   */\n    tag_59:\n        /* \"#utility.yul\":5555:5560   */\n      0x00\n        /* \"#utility.yul\":5580:5646   */\n      tag_136\n        /* \"#utility.yul\":5596:5645   */\n      tag_137\n        /* \"#utility.yul\":5638:5644   */\n      dup5\n        /* \"#utility.yul\":5596:5645   */\n      tag_57\n      jump\t// in\n    tag_137:\n        /* \"#utility.yul\":5580:5646   */\n      tag_56\n      jump\t// in\n    tag_136:\n        /* \"#utility.yul\":5571:5646   */\n      swap1\n      pop\n        /* \"#utility.yul\":5669:5675   */\n      dup3\n        /* \"#utility.yul\":5662:5667   */\n      dup2\n        /* \"#utility.yul\":5655:5676   */\n      mstore\n        /* \"#utility.yul\":5707:5711   */\n      0x20\n        /* \"#utility.yul\":5700:5705   */\n      dup2\n        /* \"#utility.yul\":5696:5712   */\n      add\n        /* \"#utility.yul\":5745:5748   */\n      dup5\n        /* \"#utility.yul\":5736:5742   */\n      dup5\n        /* \"#utility.yul\":5731:5734   */\n      dup5\n        /* \"#utility.yul\":5727:5743   */\n      add\n        /* \"#utility.yul\":5724:5749   */\n      gt\n        /* \"#utility.yul\":5721:5833   */\n      iszero\n      tag_138\n      jumpi\n        /* \"#utility.yul\":5752:5831   */\n      tag_139\n      tag_53\n      jump\t// in\n    tag_139:\n        /* \"#utility.yul\":5721:5833   */\n    tag_138:\n        /* \"#utility.yul\":5842:5896   */\n      tag_140\n        /* \"#utility.yul\":5889:5895   */\n      dup5\n        /* \"#utility.yul\":5884:5887   */\n      dup3\n        /* \"#utility.yul\":5879:5882   */\n      dup6\n        /* \"#utility.yul\":5842:5896   */\n      tag_58\n      jump\t// in\n    tag_140:\n        /* \"#utility.yul\":5561:5902   */\n      pop\n        /* \"#utility.yul\":5477:5902   */\n      swap4\n      swap3\n      pop\n      pop\n      pop\n      jump\t// out\n        /* \"#utility.yul\":5922:6262   */\n    tag_60:\n        /* \"#utility.yul\":5978:5983   */\n      0x00\n        /* \"#utility.yul\":6027:6030   */\n      dup3\n        /* \"#utility.yul\":6020:6024   */\n      0x1f\n        /* \"#utility.yul\":6012:6018   */\n      dup4\n        /* \"#utility.yul\":6008:6025   */\n      add\n        /* \"#utility.yul\":6004:6031   */\n      slt\n        /* \"#utility.yul\":5994:6116   */\n      tag_142\n      jumpi\n        /* \"#utility.yul\":6035:6114   */\n      tag_143\n      tag_52\n      jump\t// in\n    tag_143:\n        /* \"#utility.yul\":5994:6116   */\n    tag_142:\n        /* \"#utility.yul\":6152:6158   */\n      dup2\n        /* \"#utility.yul\":6139:6159   */\n      calldataload\n        /* \"#utility.yul\":6177:6256   */\n      tag_144\n        /* \"#utility.yul\":6252:6255   */\n      dup5\n        /* \"#utility.yul\":6244:6250   */\n      dup3\n        /* \"#utility.yul\":6237:6241   */\n      0x20\n        /* \"#utility.yul\":6229:6235   */\n      dup7\n        /* \"#utility.yul\":6225:6242   */\n      add\n        /* \"#utility.yul\":6177:6256   */\n      tag_59\n      jump\t// in\n    tag_144:\n        /* \"#utility.yul\":6168:6256   */\n      swap2\n      pop\n        /* \"#utility.yul\":5984:6262   */\n      pop\n        /* \"#utility.yul\":5922:6262   */\n      swap3\n      swap2\n      pop\n      pop\n      jump\t// out\n        /* \"#utility.yul\":6268:6390   */\n    tag_61:\n        /* \"#utility.yul\":6341:6365   */\n      tag_146\n        /* \"#utility.yul\":6359:6364   */\n      dup2\n        /* \"#utility.yul\":6341:6365   */\n      tag_40\n      jump\t// in\n    tag_146:\n        /* \"#utility.yul\":6334:6339   */\n      dup2\n        /* \"#utility.yul\":6331:6366   */\n      eq\n        /* \"#utility.yul\":6321:6384   */\n      tag_147\n      jumpi\n        /* \"#utility.yul\":6380:6381   */\n      0x00\n        /* \"#utility.yul\":6377:6378   */\n      0x00\n        /* \"#utility.yul\":6370:6382   */\n      revert\n        /* \"#utility.yul\":6321:6384   */\n    tag_147:\n        /* \"#utility.yul\":6268:6390   */\n      pop\n      jump\t// out\n        /* \"#utility.yul\":6396:6535   */\n    tag_62:\n        /* \"#utility.yul\":6442:6447   */\n      0x00\n        /* \"#utility.yul\":6480:6486   */\n      dup2\n        /* \"#utility.yul\":6467:6487   */\n      calldataload\n        /* \"#utility.yul\":6458:6487   */\n      swap1\n      pop\n        /* \"#utility.yul\":6496:6529   */\n      tag_149\n        /* \"#utility.yul\":6523:6528   */\n      dup2\n        /* \"#utility.yul\":6496:6529   */\n      tag_61\n      jump\t// in\n    tag_149:\n        /* \"#utility.yul\":6396:6535   */\n      swap3\n      swap2\n      pop\n      pop\n      jump\t// out\n        /* \"#utility.yul\":6541:6657   */\n    tag_63:\n        /* \"#utility.yul\":6611:6632   */\n      tag_151\n        /* \"#utility.yul\":6626:6631   */\n      dup2\n        /* \"#utility.yul\":6611:6632   */\n      tag_42\n      jump\t// in\n    tag_151:\n        /* \"#utility.yul\":6604:6609   */\n      dup2\n        /* \"#utility.yul\":6601:6633   */\n      eq\n        /* \"#utility.yul\":6591:6651   */\n      tag_152\n      jumpi\n        /* \"#utility.yul\":6647:6648   */\n      0x00\n        /* \"#utility.yul\":6644:6645   */\n      0x00\n        /* \"#utility.yul\":6637:6649   */\n      revert\n        /* \"#utility.yul\":6591:6651   */\n    tag_152:\n        /* \"#utility.yul\":6541:6657   */\n      pop\n      jump\t// out\n        /* \"#utility.yul\":6663:6796   */\n    tag_64:\n        /* \"#utility.yul\":6706:6711   */\n      0x00\n        /* \"#utility.yul\":6744:6750   */\n      dup2\n        /* \"#utility.yul\":6731:6751   */\n      calldataload\n        /* \"#utility.yul\":6722:6751   */\n      swap1\n      pop\n        /* \"#utility.yul\":6760:6790   */\n      tag_154\n        /* \"#utility.yul\":6784:6789   */\n      dup2\n        /* \"#utility.yul\":6760:6790   */\n      tag_63\n      jump\t// in\n    tag_154:\n        /* \"#utility.yul\":6663:6796   */\n      swap3\n      swap2\n      pop\n      pop\n      jump\t// out\n        /* \"#utility.yul\":6802:7595   */\n    tag_16:\n        /* \"#utility.yul\":6886:6892   */\n      0x00\n        /* \"#utility.yul\":6894:6900   */\n      0x00\n        /* \"#utility.yul\":6902:6908   */\n      0x00\n        /* \"#utility.yul\":6951:6953   */\n      0x60\n        /* \"#utility.yul\":6939:6948   */\n      dup5\n        /* \"#utility.yul\":6930:6937   */\n      dup7\n        /* \"#utility.yul\":6926:6949   */\n      sub\n        /* \"#utility.yul\":6922:6954   */\n      slt\n        /* \"#utility.yul\":6919:7038   */\n      iszero\n      tag_156\n      jumpi\n        /* \"#utility.yul\":6957:7036   */\n      tag_157\n      tag_50\n      jump\t// in\n    tag_157:\n        /* \"#utility.yul\":6919:7038   */\n    tag_156:\n        /* \"#utility.yul\":7105:7106   */\n      0x00\n        /* \"#utility.yul\":7094:7103   */\n      dup5\n        /* \"#utility.yul\":7090:7107   */\n      add\n        /* \"#utility.yul\":7077:7108   */\n      calldataload\n        /* \"#utility.yul\":7135:7153   */\n      0xffffffffffffffff\n        /* \"#utility.yul\":7127:7133   */\n      dup2\n        /* \"#utility.yul\":7124:7154   */\n      gt\n        /* \"#utility.yul\":7121:7238   */\n      iszero\n      tag_158\n      jumpi\n        /* \"#utility.yul\":7157:7236   */\n      tag_159\n      tag_51\n      jump\t// in\n    tag_159:\n        /* \"#utility.yul\":7121:7238   */\n    tag_158:\n        /* \"#utility.yul\":7262:7325   */\n      tag_160\n        /* \"#utility.yul\":7317:7324   */\n      dup7\n        /* \"#utility.yul\":7308:7314   */\n      dup3\n        /* \"#utility.yul\":7297:7306   */\n      dup8\n        /* \"#utility.yul\":7293:7315   */\n      add\n        /* \"#utility.yul\":7262:7325   */\n      tag_60\n      jump\t// in\n    tag_160:\n        /* \"#utility.yul\":7252:7325   */\n      swap4\n      pop\n        /* \"#utility.yul\":7048:7335   */\n      pop\n        /* \"#utility.yul\":7374:7376   */\n      0x20\n        /* \"#utility.yul\":7400:7453   */\n      tag_161\n        /* \"#utility.yul\":7445:7452   */\n      dup7\n        /* \"#utility.yul\":7436:7442   */\n      dup3\n        /* \"#utility.yul\":7425:7434   */\n      dup8\n        /* \"#utility.yul\":7421:7443   */\n      add\n        /* \"#utility.yul\":7400:7453   */\n      tag_62\n      jump\t// in\n    tag_161:\n        /* \"#utility.yul\":7390:7453   */\n      swap3\n      pop\n        /* \"#utility.yul\":7345:7463   */\n      pop\n        /* \"#utility.yul\":7502:7504   */\n      0x40\n        /* \"#utility.yul\":7528:7578   */\n      tag_162\n        /* \"#utility.yul\":7570:7577   */\n      dup7\n        /* \"#utility.yul\":7561:7567   */\n      dup3\n        /* \"#utility.yul\":7550:7559   */\n      dup8\n        /* \"#utility.yul\":7546:7568   */\n      add\n        /* \"#utility.yul\":7528:7578   */\n      tag_64\n      jump\t// in\n    tag_162:\n        /* \"#utility.yul\":7518:7578   */\n      swap2\n      pop\n        /* \"#utility.yul\":7473:7588   */\n      pop\n        /* \"#utility.yul\":6802:7595   */\n      swap3\n      pop\n      swap3\n      pop\n      swap3\n      jump\t// out\n        /* \"#utility.yul\":7601:7781   */\n    tag_65:\n        /* \"#utility.yul\":7649:7726   */\n      0x4e487b7100000000000000000000000000000000000000000000000000000000\n        /* \"#utility.yul\":7646:7647   */\n      0x00\n        /* \"#utility.yul\":7639:7727   */\n      mstore\n        /* \"#utility.yul\":7746:7750   */\n      0x22\n        /* \"#utility.yul\":7743:7744   */\n      0x04\n        /* \"#utility.yul\":7736:7751   */\n      mstore\n        /* \"#utility.yul\":7770:7774   */\n      0x24\n        /* \"#utility.yul\":7767:7768   */\n      0x00\n        /* \"#utility.yul\":7760:7775   */\n      revert\n        /* \"#utility.yul\":7787:8107   */\n    tag_19:\n        /* \"#utility.yul\":7831:7837   */\n      0x00\n        /* \"#utility.yul\":7868:7869   */\n      0x02\n        /* \"#utility.yul\":7862:7866   */\n      dup3\n        /* \"#utility.yul\":7858:7870   */\n      div\n        /* \"#utility.yul\":7848:7870   */\n      swap1\n      pop\n        /* \"#utility.yul\":7915:7916   */\n      0x01\n        /* \"#utility.yul\":7909:7913   */\n      dup3\n        /* \"#utility.yul\":7905:7917   */\n      and\n        /* \"#utility.yul\":7936:7954   */\n      dup1\n        /* \"#utility.yul\":7926:8007   */\n      tag_165\n      jumpi\n        /* \"#utility.yul\":7992:7996   */\n      0x7f\n        /* \"#utility.yul\":7984:7990   */\n      dup3\n        /* \"#utility.yul\":7980:7997   */\n      and\n        /* \"#utility.yul\":7970:7997   */\n      swap2\n      pop\n        /* \"#utility.yul\":7926:8007   */\n    tag_165:\n        /* \"#utility.yul\":8054:8056   */\n      0x20\n        /* \"#utility.yul\":8046:8052   */\n      dup3\n        /* \"#utility.yul\":8043:8057   */\n      lt\n        /* \"#utility.yul\":8023:8041   */\n      dup2\n        /* \"#utility.yul\":8020:8058   */\n      sub\n        /* \"#utility.yul\":8017:8101   */\n      tag_166\n      jumpi\n        /* \"#utility.yul\":8073:8091   */\n      tag_167\n      tag_65\n      jump\t// in\n    tag_167:\n        /* \"#utility.yul\":8017:8101   */\n    tag_166:\n        /* \"#utility.yul\":7838:8107   */\n      pop\n        /* \"#utility.yul\":7787:8107   */\n      swap2\n      swap1\n      pop\n      jump\t// out\n        /* \"#utility.yul\":8113:8254   */\n    tag_66:\n        /* \"#utility.yul\":8162:8166   */\n      0x00\n        /* \"#utility.yul\":8185:8188   */\n      dup2\n        /* \"#utility.yul\":8177:8188   */\n      swap1\n      pop\n        /* \"#utility.yul\":8208:8211   */\n      dup2\n        /* \"#utility.yul\":8205:8206   */\n      0x00\n        /* \"#utility.yul\":8198:8212   */\n      mstore\n        /* \"#utility.yul\":8242:8246   */\n      0x20\n        /* \"#utility.yul\":8239:8240   */\n      0x00\n        /* \"#utility.yul\":8229:8247   */\n      keccak256\n        /* \"#utility.yul\":8221:8247   */\n      swap1\n      pop\n        /* \"#utility.yul\":8113:8254   */\n      swap2\n      swap1\n      pop\n      jump\t// out\n        /* \"#utility.yul\":8260:8353   */\n    tag_67:\n        /* \"#utility.yul\":8297:8303   */\n      0x00\n        /* \"#utility.yul\":8344:8346   */\n      0x20\n        /* \"#utility.yul\":8339:8341   */\n      0x1f\n        /* \"#utility.yul\":8332:8337   */\n      dup4\n        /* \"#utility.yul\":8328:8342   */\n      add\n        /* \"#utility.yul\":8324:8347   */\n      div\n        /* \"#utility.yul\":8314:8347   */\n      swap1\n      pop\n        /* \"#utility.yul\":8260:8353   */\n      swap2\n      swap1\n      pop\n      jump\t// out\n        /* \"#utility.yul\":8359:8466   */\n    tag_68:\n        /* \"#utility.yul\":8403:8411   */\n      0x00\n        /* \"#utility.yul\":8453:8458   */\n      dup3\n        /* \"#utility.yul\":8447:8451   */\n      dup3\n        /* \"#utility.yul\":8443:8459   */\n      shl\n        /* \"#utility.yul\":8422:8459   */\n      swap1\n      pop\n        /* \"#utility.yul\":8359:8466   */\n      swap3\n      swap2\n      pop\n      pop\n      jump\t// out\n        /* \"#utility.yul\":8472:8865   */\n    tag_69:\n        /* \"#utility.yul\":8541:8547   */\n      0x00\n        /* \"#utility.yul\":8591:8592   */\n      0x08\n        /* \"#utility.yul\":8579:8589   */\n      dup4\n        /* \"#utility.yul\":8575:8593   */\n      mul\n        /* \"#utility.yul\":8614:8711   */\n      tag_172\n        /* \"#utility.yul\":8644:8710   */\n      0xffffffffffffffffffffffffffffffffffffffffffffffffffffffffffffffff\n        /* \"#utility.yul\":8633:8642   */\n      dup3\n        /* \"#utility.yul\":8614:8711   */\n      tag_68\n      jump\t// in\n    tag_172:\n        /* \"#utility.yul\":8732:8771   */\n      tag_173\n        /* \"#utility.yul\":8762:8770   */\n      dup7\n        /* \"#utility.yul\":8751:8760   */\n      dup4\n        /* \"#utility.yul\":8732:8771   */\n      tag_68\n      jump\t// in\n    tag_173:\n        /* \"#utility.yul\":8720:8771   */\n      swap6\n      pop\n        /* \"#utility.yul\":8804:8808   */\n      dup1\n        /* \"#utility.yul\":8800:8809   */\n      not\n        /* \"#utility.yul\":8793:8798   */\n      dup5\n        /* \"#utility.yul\":8789:8810   */\n      and\n        /* \"#utility.yul\":8780:8810   */\n      swap4\n      pop\n        /* \"#utility.yul\":8853:8857   */\n      dup1\n        /* \"#utility.yul\":8843:8851   */\n      dup7\n        /* \"#utility.yul\":8839:8858   */\n      and\n        /* \"#utility.yul\":8832:8837   */\n      dup5\n        /* \"#utility.yul\":8829:8859   */\n      or\n        /* \"#utility.yul\":8819:8859   */\n      swap3\n      pop\n        /* \"#utility.yul\":8548:8865   */\n      pop\n      pop\n        /* \"#utility.yul\":8472:8865   */\n      swap4\n      swap3\n      pop\n      pop\n      pop\n      jump\t// out\n        /* \"#utility.yul\":8871:8931   */\n    tag_70:\n        /* \"#utility.yul\":8899:8902   */\n      0x00\n        /* \"#utility.yul\":8920:8925   */\n      dup2\n        /* \"#utility.yul\":8913:8925   */\n      swap1\n      pop\n        /* \"#utility.yul\":8871:8931   */\n      swap2\n      swap1\n      pop\n      jump\t// out\n        /* \"#utility.yul\":8937:9079   */\n    tag_71:\n        /* \"#utility.yul\":8987:8996   */\n      0x00\n        /* \"#utility.yul\":9020:9073   */\n      tag_176\n        /* \"#utility.yul\":9038:9072   */\n      tag_177\n        /* \"#utility.yul\":9047:9071   */\n      tag_178\n        /* \"#utility.yul\":9065:9070   */\n      dup5\n        /* \"#utility.yul\":9047:9071   */\n      tag_40\n      jump\t// in\n    tag_178:\n        /* \"#utility.yul\":9038:9072   */\n      tag_70\n      jump\t// in\n    tag_177:\n        /* \"#utility.yul\":9020:9073   */\n      tag_40\n      jump\t// in\n    tag_176:\n        /* \"#utility.yul\":9007:9073   */\n      swap1\n      pop\n        /* \"#utility.yul\":8937:9079   */\n      swap2\n      swap1\n      pop\n      jump\t// out\n        /* \"#utility.yul\":9085:9160   */\n    tag_72:\n        /* \"#utility.yul\":9128:9131   */\n      0x00\n        /* \"#utility.yul\":9149:9154   */\n      dup2\n        /* \"#utility.yul\":9142:9154   */\n      swap1\n      pop\n        /* \"#utility.yul\":9085:9160   */\n      swap2\n      swap1\n      pop\n      jump\t// out\n        /* \"#utility.yul\":9166:9435   */\n    tag_73:\n        /* \"#utility.yul\":9276:9315   */\n      tag_181\n        /* \"#utility.yul\":9307:9314   */\n      dup4\n        /* \"#utility.yul\":9276:9315   */\n      tag_71\n      jump\t// in\n    tag_181:\n        /* \"#utility.yul\":9337:9428   */\n      tag_182\n        /* \"#utility.yul\":9386:9427   */\n      tag_183\n        /* \"#utility.yul\":9410:9426   */\n      dup3\n        /* \"#utility.yul\":9386:9427   */\n      tag_72\n      jump\t// in\n    tag_183:\n        /* \"#utility.yul\":9378:9384   */\n      dup5\n        /* \"#utility.yul\":9371:9375   */\n      dup5\n        /* \"#utility.yul\":9365:9376   */\n      sload\n        /* \"#utility.yul\":9337:9428   */\n      tag_69\n      jump\t// in\n    tag_182:\n        /* \"#utility.yul\":9331:9335   */\n      dup3\n        /* \"#utility.yul\":9324:9429   */\n      sstore\n        /* \"#utility.yul\":9242:9435   */\n      pop\n        /* \"#utility.yul\":9166:9435   */\n      pop\n      pop\n      pop\n      jump\t// out\n        /* \"#utility.yul\":9441:9514   */\n    tag_74:\n        /* \"#utility.yul\":9486:9489   */\n      0x00\n        /* \"#utility.yul\":9507:9508   */\n      0x00\n        /* \"#utility.yul\":9500:9508   */\n      swap1\n      pop\n        /* \"#utility.yul\":9441:9514   */\n      swap1\n      jump\t// out\n        /* \"#utility.yul\":9520:9709   */\n    tag_75:\n        /* \"#utility.yul\":9597:9629   */\n      tag_186\n      tag_74\n      jump\t// in\n    tag_186:\n        /* \"#utility.yul\":9638:9703   */\n      tag_187\n        /* \"#utility.yul\":9696:9702   */\n      dup2\n        /* \"#utility.yul\":9688:9694   */\n      dup5\n        /* \"#utility.yul\":9682:9686   */\n      dup5\n        /* \"#utility.yul\":9638:9703   */\n      tag_73\n      jump\t// in\n    tag_187:\n        /* \"#utility.yul\":9573:9709   */\n      pop\n        /* \"#utility.yul\":9520:9709   */\n      pop\n      pop\n      jump\t// out\n        /* \"#utility.yul\":9715:9901   */\n    tag_76:\n        /* \"#utility.yul\":9775:9895   */\n    tag_189:\n        /* \"#utility.yul\":9792:9795   */\n      dup2\n        /* \"#utility.yul\":9785:9790   */\n      dup2\n        /* \"#utility.yul\":9782:9796   */\n      lt\n        /* \"#utility.yul\":9775:9895   */\n      iszero\n      tag_191\n      jumpi\n        /* \"#utility.yul\":9846:9885   */\n      tag_192\n        /* \"#utility.yul\":9883:9884   */\n      0x00\n        /* \"#utility.yul\":9876:9881   */\n      dup3\n        /* \"#utility.yul\":9846:9885   */\n      tag_75\n      jump\t// in\n    tag_192:\n        /* \"#utility.yul\":9819:9820   */\n      0x01\n        /* \"#utility.yul\":9812:9817   */\n      dup2\n        /* \"#utility.yul\":9808:9821   */\n      add\n        /* \"#utility.yul\":9799:9821   */\n      swap1\n      pop\n        /* \"#utility.yul\":9775:9895   */\n      jump(tag_189)\n    tag_191:\n        /* \"#utility.yul\":9715:9901   */\n      pop\n      pop\n      jump\t// out\n        /* \"#utility.yul\":9907:10450   */\n    tag_77:\n        /* \"#utility.yul\":10008:10010   */\n      0x1f\n        /* \"#utility.yul\":10003:10006   */\n      dup3\n        /* \"#utility.yul\":10000:10011   */\n      gt\n        /* \"#utility.yul\":9997:10443   */\n      iszero\n      tag_194\n      jumpi\n        /* \"#utility.yul\":10042:10080   */\n      tag_195\n        /* \"#utility.yul\":10074:10079   */\n      dup2\n        /* \"#utility.yul\":10042:10080   */\n      tag_66\n      jump\t// in\n    tag_195:\n        /* \"#utility.yul\":10126:10155   */\n      tag_196\n        /* \"#utility.yul\":10144:10154   */\n      dup5\n        /* \"#utility.yul\":10126:10155   */\n      tag_67\n      jump\t// in\n    tag_196:\n        /* \"#utility.yul\":10116:10124   */\n      dup2\n        /* \"#utility.yul\":10112:10156   */\n      add\n        /* \"#utility.yul\":10309:10311   */\n      0x20\n        /* \"#utility.yul\":10297:10307   */\n      dup6\n        /* \"#utility.yul\":10294:10312   */\n      lt\n        /* \"#utility.yul\":10291:10340   */\n      iszero\n      tag_197\n      jumpi\n        /* \"#utility.yul\":10330:10338   */\n      dup2\n        /* \"#utility.yul\":10315:10338   */\n      swap1\n      pop\n        /* \"#utility.yul\":10291:10340   */\n    tag_197:\n        /* \"#utility.yul\":10353:10433   */\n      tag_198\n        /* \"#utility.yul\":10409:10431   */\n      tag_199\n        /* \"#utility.yul\":10427:10430   */\n      dup6\n        /* \"#utility.yul\":10409:10431   */\n      tag_67\n      jump\t// in\n    tag_199:\n        /* \"#utility.yul\":10399:10407   */\n      dup4\n        /* \"#utility.yul\":10395:10432   */\n      add\n        /* \"#utility.yul\":10382:10393   */\n      dup3\n        /* \"#utility.yul\":10353:10433   */\n      tag_76\n      jump\t// in\n    tag_198:\n        /* \"#utility.yul\":10012:10443   */\n      pop\n      pop\n        /* \"#utility.yul\":9997:10443   */\n    tag_194:\n        /* \"#utility.yul\":9907:10450   */\n      pop\n      pop\n      pop\n      jump\t// out\n        /* \"#utility.yul\":10456:10573   */\n    tag_78:\n        /* \"#utility.yul\":10510:10518   */\n      0x00\n        /* \"#utility.yul\":10560:10565   */\n      dup3\n        /* \"#utility.yul\":10554:10558   */\n      dup3\n        /* \"#utility.yul\":10550:10566   */\n      shr\n        /* \"#utility.yul\":10529:10566   */\n      swap1\n      pop\n        /* \"#utility.yul\":10456:10573   */\n      swap3\n      swap2\n      pop\n      pop\n      jump\t// out\n        /* \"#utility.yul\":10579:10748   */\n    tag_79:\n        /* \"#utility.yul\":10623:10629   */\n      0x00\n        /* \"#utility.yul\":10656:10707   */\n      tag_202\n        /* \"#utility.yul\":10704:10705   */\n      0x00\n        /* \"#utility.yul\":10700:10706   */\n      not\n        /* \"#utility.yul\":10692:10697   */\n      dup5\n        /* \"#utility.yul\":10689:10690   */\n      0x08\n        /* \"#utility.yul\":10685:10698   */\n      mul\n        /* \"#utility.yul\":10656:10707   */\n      tag_78\n      jump\t// in\n    tag_202:\n        /* \"#utility.yul\":10652:10708   */\n      not\n        /* \"#utility.yul\":10737:10741   */\n      dup1\n        /* \"#utility.yul\":10731:10735   */\n      dup4\n        /* \"#utility.yul\":10727:10742   */\n      and\n        /* \"#utility.yul\":10717:10742   */\n      swap2\n      pop\n        /* \"#utility.yul\":10630:10748   */\n      pop\n        /* \"#utility.yul\":10579:10748   */\n      swap3\n      swap2\n      pop\n      pop\n      jump\t// out\n        /* \"#utility.yul\":10753:11048   */\n    tag_80:\n        /* \"#utility.yul\":10829:10833   */\n      0x00\n        /* \"#utility.yul\":10975:11004   */\n      tag_204\n        /* \"#utility.yul\":11000:11003   */\n      dup4\n        /* \"#utility.yul\":10994:10998   */\n      dup4\n        /* \"#utility.yul\":10975:11004   */\n      tag_79\n      jump\t// in\n    tag_204:\n        /* \"#utility.yul\":10967:11004   */\n      swap2\n      pop\n        /* \"#utility.yul\":11037:11040   */\n      dup3\n        /* \"#utility.yul\":11034:11035   */\n      0x02\n        /* \"#utility.yul\":11030:11041   */\n      mul\n        /* \"#utility.yul\":11024:11028   */\n      dup3\n        /* \"#utility.yul\":11021:11042   */\n      or\n        /* \"#utility.yul\":11013:11042   */\n      swap1\n      pop\n        /* \"#utility.yul\":10753:11048   */\n      swap3\n      swap2\n      pop\n      pop\n      jump\t// out\n        /* \"#utility.yul\":11053:12448   */\n    tag_34:\n        /* \"#utility.yul\":11170:11207   */\n      tag_206\n        /* \"#utility.yul\":11203:11206   */\n      dup3\n        /* \"#utility.yul\":11170:11207   */\n      tag_35\n      jump\t// in\n    tag_206:\n        /* \"#utility.yul\":11272:11290   */\n      0xffffffffffffffff\n        /* \"#utility.yul\":11264:11270   */\n      dup2\n        /* \"#utility.yul\":11261:11291   */\n      gt\n        /* \"#utility.yul\":11258:11314   */\n      iszero\n      tag_207\n      jumpi\n        /* \"#utility.yul\":11294:11312   */\n      tag_208\n      tag_54\n      jump\t// in\n    tag_208:\n        /* \"#utility.yul\":11258:11314   */\n    tag_207:\n        /* \"#utility.yul\":11338:11376   */\n      tag_209\n        /* \"#utility.yul\":11370:11374   */\n      dup3\n        /* \"#utility.yul\":11364:11375   */\n      sload\n        /* \"#utility.yul\":11338:11376   */\n      tag_19\n      jump\t// in\n    tag_209:\n        /* \"#utility.yul\":11423:11490   */\n      tag_210\n        /* \"#utility.yul\":11483:11489   */\n      dup3\n        /* \"#utility.yul\":11475:11481   */\n      dup3\n        /* \"#utility.yul\":11469:11473   */\n      dup6\n        /* \"#utility.yul\":11423:11490   */\n      tag_77\n      jump\t// in\n    tag_210:\n        /* \"#utility.yul\":11517:11518   */\n      0x00\n        /* \"#utility.yul\":11541:11545   */\n      0x20\n        /* \"#utility.yul\":11528:11545   */\n      swap1\n      pop\n        /* \"#utility.yul\":11573:11575   */\n      0x1f\n        /* \"#utility.yul\":11565:11571   */\n      dup4\n        /* \"#utility.yul\":11562:11576   */\n      gt\n        /* \"#utility.yul\":11590:11591   */\n      0x01\n        /* \"#utility.yul\":11585:12203   */\n      dup2\n      eq\n      tag_212\n      jumpi\n        /* \"#utility.yul\":12247:12248   */\n      0x00\n        /* \"#utility.yul\":12264:12270   */\n      dup5\n        /* \"#utility.yul\":12261:12338   */\n      iszero\n      tag_213\n      jumpi\n        /* \"#utility.yul\":12313:12322   */\n      dup3\n        /* \"#utility.yul\":12308:12311   */\n      dup8\n        /* \"#utility.yul\":12304:12323   */\n      add\n        /* \"#utility.yul\":12298:12324   */\n      mload\n        /* \"#utility.yul\":12289:12324   */\n      swap1\n      pop\n        /* \"#utility.yul\":12261:12338   */\n    tag_213:\n        /* \"#utility.yul\":12364:12431   */\n      tag_214\n        /* \"#utility.yul\":12424:12430   */\n      dup6\n        /* \"#utility.yul\":12417:12422   */\n      dup3\n        /* \"#utility.yul\":12364:12431   */\n      tag_80\n      jump\t// in\n    tag_214:\n        /* \"#utility.yul\":12358:12362   */\n      dup7\n        /* \"#utility.yul\":12351:12432   */\n      sstore\n        /* \"#utility.yul\":12220:12442   */\n      pop\n        /* \"#utility.yul\":11555:12442   */\n      jump(tag_211)\n        /* \"#utility.yul\":11585:12203   */\n    tag_212:\n        /* \"#utility.yul\":11637:11641   */\n      0x1f\n        /* \"#utility.yul\":11633:11642   */\n      not\n        /* \"#utility.yul\":11625:11631   */\n      dup5\n        /* \"#utility.yul\":11621:11643   */\n      and\n        /* \"#utility.yul\":11671:11708   */\n      tag_215\n        /* \"#utility.yul\":11703:11707   */\n      dup7\n        /* \"#utility.yul\":11671:11708   */\n      tag_66\n      jump\t// in\n    tag_215:\n        /* \"#utility.yul\":11730:11731   */\n      0x00\n        /* \"#utility.yul\":11744:11952   */\n    tag_216:\n        /* \"#utility.yul\":11758:11765   */\n      dup3\n        /* \"#utility.yul\":11755:11756   */\n      dup2\n        /* \"#utility.yul\":11752:11766   */\n      lt\n        /* \"#utility.yul\":11744:11952   */\n      iszero\n      tag_218\n      jumpi\n        /* \"#utility.yul\":11837:11846   */\n      dup5\n        /* \"#utility.yul\":11832:11835   */\n      dup10\n        /* \"#utility.yul\":11828:11847   */\n      add\n        /* \"#utility.yul\":11822:11848   */\n      mload\n        /* \"#utility.yul\":11814:11820   */\n      dup3\n        /* \"#utility.yul\":11807:11849   */\n      sstore\n        /* \"#utility.yul\":11888:11889   */\n      0x01\n        /* \"#utility.yul\":11880:11886   */\n      dup3\n        /* \"#utility.yul\":11876:11890   */\n      add\n        /* \"#utility.yul\":11866:11890   */\n      swap2\n      pop\n        /* \"#utility.yul\":11935:11937   */\n      0x20\n        /* \"#utility.yul\":11924:11933   */\n      dup6\n        /* \"#utility.yul\":11920:11938   */\n      add\n        /* \"#utility.yul\":11907:11938   */\n      swap5\n      pop\n        /* \"#utility.yul\":11781:11785   */\n      0x20\n        /* \"#utility.yul\":11778:11779   */\n      dup2\n        /* \"#utility.yul\":11774:11786   */\n      add\n        /* \"#utility.yul\":11769:11786   */\n      swap1\n      pop\n        /* \"#utility.yul\":11744:11952   */\n      jump(tag_216)\n    tag_218:\n        /* \"#utility.yul\":11980:11986   */\n      dup7\n        /* \"#utility.yul\":11971:11978   */\n      dup4\n        /* \"#utility.yul\":11968:11987   */\n      lt\n        /* \"#utility.yul\":11965:12144   */\n      iszero\n      tag_219\n      jumpi\n        /* \"#utility.yul\":12038:12047   */\n      dup5\n        /* \"#utility.yul\":12033:12036   */\n      dup10\n        /* \"#utility.yul\":12029:12048   */\n      add\n        /* \"#utility.yul\":12023:12049   */\n      mload\n        /* \"#utility.yul\":12081:12129   */\n      tag_220\n        /* \"#utility.yul\":12123:12127   */\n      0x1f\n        /* \"#utility.yul\":12115:12121   */\n      dup10\n        /* \"#utility.yul\":12111:12128   */\n      and\n        /* \"#utility.yul\":12100:12109   */\n      dup3\n        /* \"#utility.yul\":12081:12129   */\n      tag_79\n      jump\t// in\n    tag_220:\n        /* \"#utility.yul\":12073:12079   */\n      dup4\n        /* \"#utility.yul\":12066:12130   */\n      sstore\n        /* \"#utility.yul\":11988:12144   */\n      pop\n        /* \"#utility.yul\":11965:12144   */\n    tag_219:\n        /* \"#utility.yul\":12190:12191   */\n      0x01\n        /* \"#utility.yul\":12186:12187   */\n      0x02\n        /* \"#utility.yul\":12178:12184   */\n      dup9\n        /* \"#utility.yul\":12174:12188   */\n      mul\n        /* \"#utility.yul\":12170:12192   */\n      add\n        /* \"#utility.yul\":12164:12168   */\n      dup9\n        /* \"#utility.yul\":12157:12193   */\n      sstore\n        /* \"#utility.yul\":11592:12203   */\n      pop\n      pop\n      pop\n        /* \"#utility.yul\":11555:12442   */\n    tag_211:\n      pop\n        /* \"#utility.yul\":11145:12448   */\n      pop\n      pop\n      pop\n        /* \"#utility.yul\":11053:12448   */\n      pop\n      pop\n      jump\t// out\n\n    auxdata: 0xa26469706673582212208aefe54004604c2241d3a1ff19e9b204257a1724fac2ba83afbb73f38dd77c3264736f6c634300081e0033\n}\n",
				"bytecode": {
					"linkReferences": {},
					"object": "6080604052348015600e575f5ffd5b506109458061001c5f395ff3fe608060405234801561000f575f5ffd5b506004361061003f575f3560e01c80636cc014de14610043578063993a04b714610063578063c30655a214610081575b5f5ffd5b61004b61009d565b60405161005a93929190610337565b60405180910390f35b61006b610145565b6040516100789190610426565b60405180910390f35b61009b600480360381019061009691906105d7565b610211565b005b5f805f0180546100ac90610670565b80601f01602080910402602001604051908101604052809291908181526020018280546100d890610670565b80156101235780601f106100fa57610100808354040283529160200191610123565b820191905f5260205f20905b81548152906001019060200180831161010657829003601f168201915b505050505090806001015490806002015f9054906101000a900460ff16905083565b61014d610274565b5f6040518060600160405290815f8201805461016890610670565b80601f016020809104026020016040519081016040528092919081815260200182805461019490610670565b80156101df5780601f106101b6576101008083540402835291602001916101df565b820191905f5260205f20905b8154815290600101906020018083116101c257829003601f168201915b5050505050815260200160018201548152602001600282015f9054906101000a900460ff161515151581525050905090565b60405180606001604052808481526020018381526020018215158152505f5f820151815f0190816102429190610840565b50602082015181600101556040820151816002015f6101000a81548160ff021916908315150217905550905050505050565b6040518060600160405280606081526020015f81526020015f151581525090565b5f81519050919050565b5f82825260208201905092915050565b8281835e5f83830152505050565b5f601f19601f8301169050919050565b5f6102d782610295565b6102e1818561029f565b93506102f18185602086016102af565b6102fa816102bd565b840191505092915050565b5f819050919050565b61031781610305565b82525050565b5f8115159050919050565b6103318161031d565b82525050565b5f6060820190508181035f83015261034f81866102cd565b905061035e602083018561030e565b61036b6040830184610328565b949350505050565b5f82825260208201905092915050565b5f61038d82610295565b6103978185610373565b93506103a78185602086016102af565b6103b0816102bd565b840191505092915050565b6103c481610305565b82525050565b6103d38161031d565b82525050565b5f606083015f8301518482035f8601526103f38282610383565b915050602083015161040860208601826103bb565b50604083015161041b60408601826103ca565b508091505092915050565b5f6020820190508181035f83015261043e81846103d9565b905092915050565b5f604051905090565b5f5ffd5b5f5ffd5b5f5ffd5b5f5ffd5b7f4e487b71000000000000000000000000000000000000000000000000000000005f52604160045260245ffd5b610495826102bd565b810181811067ffffffffffffffff821117156104b4576104b361045f565b5b80604052505050565b5f6104c6610446565b90506104d2828261048c565b919050565b5f67ffffffffffffffff8211156104f1576104f061045f565b5b6104fa826102bd565b9050602081019050919050565b828183375f83830152505050565b5f610527610522846104d7565b6104bd565b9050828152602081018484840111156105435761054261045b565b5b61054e848285610507565b509392505050565b5f82601f83011261056a57610569610457565b5b813561057a848260208601610515565b91505092915050565b61058c81610305565b8114610596575f5ffd5b50565b5f813590506105a781610583565b92915050565b6105b68161031d565b81146105c0575f5ffd5b50565b5f813590506105d1816105ad565b92915050565b5f5f5f606084860312156105ee576105ed61044f565b5b5f84013567ffffffffffffffff81111561060b5761060a610453565b5b61061786828701610556565b935050602061062886828701610599565b9250506040610639868287016105c3565b9150509250925092565b7f4e487b71000000000000000000000000000000000000000000000000000000005f52602260045260245ffd5b5f600282049050600182168061068757607f821691505b60208210810361069a57610699610643565b5b50919050565b5f819050815f5260205f209050919050565b5f6020601f8301049050919050565b5f82821b905092915050565b5f600883026106fc7fffffffffffffffffffffffffffffffffffffffffffffffffffffffffffffffff826106c1565b61070686836106c1565b95508019841693508086168417925050509392505050565b5f819050919050565b5f61074161073c61073784610305565b61071e565b610305565b9050919050565b5f819050919050565b61075a83610727565b61076e61076682610748565b8484546106cd565b825550505050565b5f5f905090565b610785610776565b610790818484610751565b505050565b5b818110156107b3576107a85f8261077d565b600181019050610796565b5050565b601f8211156107f8576107c9816106a0565b6107d2846106b2565b810160208510156107e1578190505b6107f56107ed856106b2565b830182610795565b50505b505050565b5f82821c905092915050565b5f6108185f19846008026107fd565b1980831691505092915050565b5f6108308383610809565b9150826002028217905092915050565b61084982610295565b67ffffffffffffffff8111156108625761086161045f565b5b61086c8254610670565b6108778282856107b7565b5f60209050601f8311600181146108a8575f8415610896578287015190505b6108a08582610825565b865550610907565b601f1984166108b6866106a0565b5f5b828110156108dd578489015182556001820191506020850194506020810190506108b8565b868310156108fa57848901516108f6601f891682610809565b8355505b6001600288020188555050505b50505050505056fea26469706673582212208aefe54004604c2241d3a1ff19e9b204257a1724fac2ba83afbb73f38dd77c3264736f6c634300081e0033",
					"opcodes": "PUSH1 0x80 PUSH1 0x40 MSTORE CALLVALUE DUP1 ISZERO PUSH1 0xE JUMPI PUSH0 PUSH0 REVERT JUMPDEST POP PUSH2 0x945 DUP1 PUSH2 0x1C PUSH0 CODECOPY PUSH0 RETURN INVALID PUSH1 0x80 PUSH1 0x40 MSTORE CALLVALUE DUP1 ISZERO PUSH2 0xF JUMPI PUSH0 PUSH0 REVERT JUMPDEST POP PUSH1 0x4 CALLDATASIZE LT PUSH2 0x3F JUMPI PUSH0 CALLDATALOAD PUSH1 0xE0 SHR DUP1 PUSH4 0x6CC014DE EQ PUSH2 0x43 JUMPI DUP1 PUSH4 0x993A04B7 EQ PUSH2 0x63 JUMPI DUP1 PUSH4 0xC30655A2 EQ PUSH2 0x81 JUMPI JUMPDEST PUSH0 PUSH0 REVERT JUMPDEST PUSH2 0x4B PUSH2 0x9D JUMP JUMPDEST PUSH1 0x40 MLOAD PUSH2 0x5A SWAP4 SWAP3 SWAP2 SWAP1 PUSH2 0x337 JUMP JUMPDEST PUSH1 0x40 MLOAD DUP1 SWAP2 SUB SWAP1 RETURN JUMPDEST PUSH2 0x6B PUSH2 0x145 JUMP JUMPDEST PUSH1 0x40 MLOAD PUSH2 0x78 SWAP2 SWAP1 PUSH2 0x426 JUMP JUMPDEST PUSH1 0x40 MLOAD DUP1 SWAP2 SUB SWAP1 RETURN JUMPDEST PUSH2 0x9B PUSH1 0x4 DUP1 CALLDATASIZE SUB DUP2 ADD SWAP1 PUSH2 0x96 SWAP2 SWAP1 PUSH2 0x5D7 JUMP JUMPDEST PUSH2 0x211 JUMP JUMPDEST STOP JUMPDEST PUSH0 DUP1 PUSH0 ADD DUP1 SLOAD PUSH2 0xAC SWAP1 PUSH2 0x670 JUMP JUMPDEST DUP1 PUSH1 0x1F ADD PUSH1 0x20 DUP1 SWAP2 DIV MUL PUSH1 0x20 ADD PUSH1 0x40 MLOAD SWAP1 DUP2 ADD PUSH1 0x40 MSTORE DUP1 SWAP3 SWAP2 SWAP1 DUP2 DUP2 MSTORE PUSH1 0x20 ADD DUP3 DUP1 SLOAD PUSH2 0xD8 SWAP1 PUSH2 0x670 JUMP JUMPDEST DUP1 ISZERO PUSH2 0x123 JUMPI DUP1 PUSH1 0x1F LT PUSH2 0xFA JUMPI PUSH2 0x100 DUP1 DUP4 SLOAD DIV MUL DUP4 MSTORE SWAP2 PUSH1 0x20 ADD SWAP2 PUSH2 0x123 JUMP JUMPDEST DUP3 ADD SWAP2 SWAP1 PUSH0 MSTORE PUSH1 0x20 PUSH0 KECCAK256 SWAP1 JUMPDEST DUP2 SLOAD DUP2 MSTORE SWAP1 PUSH1 0x1 ADD SWAP1 PUSH1 0x20 ADD DUP1 DUP4 GT PUSH2 0x106 JUMPI DUP3 SWAP1 SUB PUSH1 0x1F AND DUP3 ADD SWAP2 JUMPDEST POP POP POP POP POP SWAP1 DUP1 PUSH1 0x1 ADD SLOAD SWAP1 DUP1 PUSH1 0x2 ADD PUSH0 SWAP1 SLOAD SWAP1 PUSH2 0x100 EXP SWAP1 DIV PUSH1 0xFF AND SWAP1 POP DUP4 JUMP JUMPDEST PUSH2 0x14D PUSH2 0x274 JUMP JUMPDEST PUSH0 PUSH1 0x40 MLOAD DUP1 PUSH1 0x60 ADD PUSH1 0x40 MSTORE SWAP1 DUP2 PUSH0 DUP3 ADD DUP1 SLOAD PUSH2 0x168 SWAP1 PUSH2 0x670 JUMP JUMPDEST DUP1 PUSH1 0x1F ADD PUSH1 0x20 DUP1 SWAP2 DIV MUL PUSH1 0x20 ADD PUSH1 0x40 MLOAD SWAP1 DUP2 ADD PUSH1 0x40 MSTORE DUP1 SWAP3 SWAP2 SWAP1 DUP2 DUP2 MSTORE PUSH1 0x20 ADD DUP3 DUP1 SLOAD PUSH2 0x194 SWAP1 PUSH2 0x670 JUMP JUMPDEST DUP1 ISZERO PUSH2 0x1DF JUMPI DUP1 PUSH1 0x1F LT PUSH2 0x1B6 JUMPI PUSH2 0x100 DUP1 DUP4 SLOAD DIV MUL DUP4 MSTORE SWAP2 PUSH1 0x20 ADD SWAP2 PUSH2 0x1DF JUMP JUMPDEST DUP3 ADD SWAP2 SWAP1 PUSH0 MSTORE PUSH1 0x20 PUSH0 KECCAK256 SWAP1 JUMPDEST DUP2 SLOAD DUP2 MSTORE SWAP1 PUSH1 0x1 ADD SWAP1 PUSH1 0x20 ADD DUP1 DUP4 GT PUSH2 0x1C2 JUMPI DUP3 SWAP1 SUB PUSH1 0x1F AND DUP3 ADD SWAP2 JUMPDEST POP POP POP POP POP DUP2 MSTORE PUSH1 0x20 ADD PUSH1 0x1 DUP3 ADD SLOAD DUP2 MSTORE PUSH1 0x20 ADD PUSH1 0x2 DUP3 ADD PUSH0 SWAP1 SLOAD SWAP1 PUSH2 0x100 EXP SWAP1 DIV PUSH1 0xFF AND ISZERO ISZERO ISZERO ISZERO DUP2 MSTORE POP POP SWAP1 POP SWAP1 JUMP JUMPDEST PUSH1 0x40 MLOAD DUP1 PUSH1 0x60 ADD PUSH1 0x40 MSTORE DUP1 DUP5 DUP2 MSTORE PUSH1 0x20 ADD DUP4 DUP2 MSTORE PUSH1 0x20 ADD DUP3 ISZERO ISZERO DUP2 MSTORE POP PUSH0 PUSH0 DUP3 ADD MLOAD DUP2 PUSH0 ADD SWAP1 DUP2 PUSH2 0x242 SWAP2 SWAP1 PUSH2 0x840 JUMP JUMPDEST POP PUSH1 0x20 DUP3 ADD MLOAD DUP2 PUSH1 0x1 ADD SSTORE PUSH1 0x40 DUP3 ADD MLOAD DUP2 PUSH1 0x2 ADD PUSH0 PUSH2 0x100 EXP DUP2 SLOAD DUP2 PUSH1 0xFF MUL NOT AND SWAP1 DUP4 ISZERO ISZERO MUL OR SWAP1 SSTORE POP SWAP1 POP POP POP POP POP JUMP JUMPDEST PUSH1 0x40 MLOAD DUP1 PUSH1 0x60 ADD PUSH1 0x40 MSTORE DUP1 PUSH1 0x60 DUP2 MSTORE PUSH1 0x20 ADD PUSH0 DUP2 MSTORE PUSH1 0x20 ADD PUSH0 ISZERO ISZERO DUP2 MSTORE POP SWAP1 JUMP JUMPDEST PUSH0 DUP2 MLOAD SWAP1 POP SWAP2 SWAP1 POP JUMP JUMPDEST PUSH0 DUP3 DUP3 MSTORE PUSH1 0x20 DUP3 ADD SWAP1 POP SWAP3 SWAP2 POP POP JUMP JUMPDEST DUP3 DUP2 DUP4 MCOPY PUSH0 DUP4 DUP4 ADD MSTORE POP POP POP JUMP JUMPDEST PUSH0 PUSH1 0x1F NOT PUSH1 0x1F DUP4 ADD AND SWAP1 POP SWAP2 SWAP1 POP JUMP JUMPDEST PUSH0 PUSH2 0x2D7 DUP3 PUSH2 0x295 JUMP JUMPDEST PUSH2 0x2E1 DUP2 DUP6 PUSH2 0x29F JUMP JUMPDEST SWAP4 POP PUSH2 0x2F1 DUP2 DUP6 PUSH1 0x20 DUP7 ADD PUSH2 0x2AF JUMP JUMPDEST PUSH2 0x2FA DUP2 PUSH2 0x2BD JUMP JUMPDEST DUP5 ADD SWAP2 POP POP SWAP3 SWAP2 POP POP JUMP JUMPDEST PUSH0 DUP2 SWAP1 POP SWAP2 SWAP1 POP JUMP JUMPDEST PUSH2 0x317 DUP2 PUSH2 0x305 JUMP JUMPDEST DUP3 MSTORE POP POP JUMP JUMPDEST PUSH0 DUP2 ISZERO ISZERO SWAP1 POP SWAP2 SWAP1 POP JUMP JUMPDEST PUSH2 0x331 DUP2 PUSH2 0x31D JUMP JUMPDEST DUP3 MSTORE POP POP JUMP JUMPDEST PUSH0 PUSH1 0x60 DUP3 ADD SWAP1 POP DUP2 DUP2 SUB PUSH0 DUP4 ADD MSTORE PUSH2 0x34F DUP2 DUP7 PUSH2 0x2CD JUMP JUMPDEST SWAP1 POP PUSH2 0x35E PUSH1 0x20 DUP4 ADD DUP6 PUSH2 0x30E JUMP JUMPDEST PUSH2 0x36B PUSH1 0x40 DUP4 ADD DUP5 PUSH2 0x328 JUMP JUMPDEST SWAP5 SWAP4 POP POP POP POP JUMP JUMPDEST PUSH0 DUP3 DUP3 MSTORE PUSH1 0x20 DUP3 ADD SWAP1 POP SWAP3 SWAP2 POP POP JUMP JUMPDEST PUSH0 PUSH2 0x38D DUP3 PUSH2 0x295 JUMP JUMPDEST PUSH2 0x397 DUP2 DUP6 PUSH2 0x373 JUMP JUMPDEST SWAP4 POP PUSH2 0x3A7 DUP2 DUP6 PUSH1 0x20 DUP7 ADD PUSH2 0x2AF JUMP JUMPDEST PUSH2 0x3B0 DUP2 PUSH2 0x2BD JUMP JUMPDEST DUP5 ADD SWAP2 POP POP SWAP3 SWAP2 POP POP JUMP JUMPDEST PUSH2 0x3C4 DUP2 PUSH2 0x305 JUMP JUMPDEST DUP3 MSTORE POP POP JUMP JUMPDEST PUSH2 0x3D3 DUP2 PUSH2 0x31D JUMP JUMPDEST DUP3 MSTORE POP POP JUMP JUMPDEST PUSH0 PUSH1 0x60 DUP4 ADD PUSH0 DUP4 ADD MLOAD DUP5 DUP3 SUB PUSH0 DUP7 ADD MSTORE PUSH2 0x3F3 DUP3 DUP3 PUSH2 0x383 JUMP JUMPDEST SWAP2 POP POP PUSH1 0x20 DUP4 ADD MLOAD PUSH2 0x408 PUSH1 0x20 DUP7 ADD DUP3 PUSH2 0x3BB JUMP JUMPDEST POP PUSH1 0x40 DUP4 ADD MLOAD PUSH2 0x41B PUSH1 0x40 DUP7 ADD DUP3 PUSH2 0x3CA JUMP JUMPDEST POP DUP1 SWAP2 POP POP SWAP3 SWAP2 POP POP JUMP JUMPDEST PUSH0 PUSH1 0x20 DUP3 ADD SWAP1 POP DUP2 DUP2 SUB PUSH0 DUP4 ADD MSTORE PUSH2 0x43E DUP2 DUP5 PUSH2 0x3D9 JUMP JUMPDEST SWAP1 POP SWAP3 SWAP2 POP POP JUMP JUMPDEST PUSH0 PUSH1 0x40 MLOAD SWAP1 POP SWAP1 JUMP JUMPDEST PUSH0 PUSH0 REVERT JUMPDEST PUSH0 PUSH0 REVERT JUMPDEST PUSH0 PUSH0 REVERT JUMPDEST PUSH0 PUSH0 REVERT JUMPDEST PUSH32 0x4E487B7100000000000000000000000000000000000000000000000000000000 PUSH0 MSTORE PUSH1 0x41 PUSH1 0x4 MSTORE PUSH1 0x24 PUSH0 REVERT JUMPDEST PUSH2 0x495 DUP3 PUSH2 0x2BD JUMP JUMPDEST DUP2 ADD DUP2 DUP2 LT PUSH8 0xFFFFFFFFFFFFFFFF DUP3 GT OR ISZERO PUSH2 0x4B4 JUMPI PUSH2 0x4B3 PUSH2 0x45F JUMP JUMPDEST JUMPDEST DUP1 PUSH1 0x40 MSTORE POP POP POP JUMP JUMPDEST PUSH0 PUSH2 0x4C6 PUSH2 0x446 JUMP JUMPDEST SWAP1 POP PUSH2 0x4D2 DUP3 DUP3 PUSH2 0x48C JUMP JUMPDEST SWAP2 SWAP1 POP JUMP JUMPDEST PUSH0 PUSH8 0xFFFFFFFFFFFFFFFF DUP3 GT ISZERO PUSH2 0x4F1 JUMPI PUSH2 0x4F0 PUSH2 0x45F JUMP JUMPDEST JUMPDEST PUSH2 0x4FA DUP3 PUSH2 0x2BD JUMP JUMPDEST SWAP1 POP PUSH1 0x20 DUP2 ADD SWAP1 POP SWAP2 SWAP1 POP JUMP JUMPDEST DUP3 DUP2 DUP4 CALLDATACOPY PUSH0 DUP4 DUP4 ADD MSTORE POP POP POP JUMP JUMPDEST PUSH0 PUSH2 0x527 PUSH2 0x522 DUP5 PUSH2 0x4D7 JUMP JUMPDEST PUSH2 0x4BD JUMP JUMPDEST SWAP1 POP DUP3 DUP2 MSTORE PUSH1 0x20 DUP2 ADD DUP5 DUP5 DUP5 ADD GT ISZERO PUSH2 0x543 JUMPI PUSH2 0x542 PUSH2 0x45B JUMP JUMPDEST JUMPDEST PUSH2 0x54E DUP5 DUP3 DUP6 PUSH2 0x507 JUMP JUMPDEST POP SWAP4 SWAP3 POP POP POP JUMP JUMPDEST PUSH0 DUP3 PUSH1 0x1F DUP4 ADD SLT PUSH2 0x56A JUMPI PUSH2 0x569 PUSH2 0x457 JUMP JUMPDEST JUMPDEST DUP2 CALLDATALOAD PUSH2 0x57A DUP5 DUP3 PUSH1 0x20 DUP7 ADD PUSH2 0x515 JUMP JUMPDEST SWAP2 POP POP SWAP3 SWAP2 POP POP JUMP JUMPDEST PUSH2 0x58C DUP2 PUSH2 0x305 JUMP JUMPDEST DUP2 EQ PUSH2 0x596 JUMPI PUSH0 PUSH0 REVERT JUMPDEST POP JUMP JUMPDEST PUSH0 DUP2 CALLDATALOAD SWAP1 POP PUSH2 0x5A7 DUP2 PUSH2 0x583 JUMP JUMPDEST SWAP3 SWAP2 POP POP JUMP JUMPDEST PUSH2 0x5B6 DUP2 PUSH2 0x31D JUMP JUMPDEST DUP2 EQ PUSH2 0x5C0 JUMPI PUSH0 PUSH0 REVERT JUMPDEST POP JUMP JUMPDEST PUSH0 DUP2 CALLDATALOAD SWAP1 POP PUSH2 0x5D1 DUP2 PUSH2 0x5AD JUMP JUMPDEST SWAP3 SWAP2 POP POP JUMP JUMPDEST PUSH0 PUSH0 PUSH0 PUSH1 0x60 DUP5 DUP7 SUB SLT ISZERO PUSH2 0x5EE JUMPI PUSH2 0x5ED PUSH2 0x44F JUMP JUMPDEST JUMPDEST PUSH0 DUP5 ADD CALLDATALOAD PUSH8 0xFFFFFFFFFFFFFFFF DUP2 GT ISZERO PUSH2 0x60B JUMPI PUSH2 0x60A PUSH2 0x453 JUMP JUMPDEST JUMPDEST PUSH2 0x617 DUP7 DUP3 DUP8 ADD PUSH2 0x556 JUMP JUMPDEST SWAP4 POP POP PUSH1 0x20 PUSH2 0x628 DUP7 DUP3 DUP8 ADD PUSH2 0x599 JUMP JUMPDEST SWAP3 POP POP PUSH1 0x40 PUSH2 0x639 DUP7 DUP3 DUP8 ADD PUSH2 0x5C3 JUMP JUMPDEST SWAP2 POP POP SWAP3 POP SWAP3 POP SWAP3 JUMP JUMPDEST PUSH32 0x4E487B7100000000000000000000000000000000000000000000000000000000 PUSH0 MSTORE PUSH1 0x22 PUSH1 0x4 MSTORE PUSH1 0x24 PUSH0 REVERT JUMPDEST PUSH0 PUSH1 0x2 DUP3 DIV SWAP1 POP PUSH1 0x1 DUP3 AND DUP1 PUSH2 0x687 JUMPI PUSH1 0x7F DUP3 AND SWAP2 POP JUMPDEST PUSH1 0x20 DUP3 LT DUP2 SUB PUSH2 0x69A JUMPI PUSH2 0x699 PUSH2 0x643 JUMP JUMPDEST JUMPDEST POP SWAP2 SWAP1 POP JUMP JUMPDEST PUSH0 DUP2 SWAP1 POP DUP2 PUSH0 MSTORE PUSH1 0x20 PUSH0 KECCAK256 SWAP1 POP SWAP2 SWAP1 POP JUMP JUMPDEST PUSH0 PUSH1 0x20 PUSH1 0x1F DUP4 ADD DIV SWAP1 POP SWAP2 SWAP1 POP JUMP JUMPDEST PUSH0 DUP3 DUP3 SHL SWAP1 POP SWAP3 SWAP2 POP POP JUMP JUMPDEST PUSH0 PUSH1 0x8 DUP4 MUL PUSH2 0x6FC PUSH32 0xFFFFFFFFFFFFFFFFFFFFFFFFFFFFFFFFFFFFFFFFFFFFFFFFFFFFFFFFFFFFFFFF DUP3 PUSH2 0x6C1 JUMP JUMPDEST PUSH2 0x706 DUP7 DUP4 PUSH2 0x6C1 JUMP JUMPDEST SWAP6 POP DUP1 NOT DUP5 AND SWAP4 POP DUP1 DUP7 AND DUP5 OR SWAP3 POP POP POP SWAP4 SWAP3 POP POP POP JUMP JUMPDEST PUSH0 DUP2 SWAP1 POP SWAP2 SWAP1 POP JUMP JUMPDEST PUSH0 PUSH2 0x741 PUSH2 0x73C PUSH2 0x737 DUP5 PUSH2 0x305 JUMP JUMPDEST PUSH2 0x71E JUMP JUMPDEST PUSH2 0x305 JUMP JUMPDEST SWAP1 POP SWAP2 SWAP1 POP JUMP JUMPDEST PUSH0 DUP2 SWAP1 POP SWAP2 SWAP1 POP JUMP JUMPDEST PUSH2 0x75A DUP4 PUSH2 0x727 JUMP JUMPDEST PUSH2 0x76E PUSH2 0x766 DUP3 PUSH2 0x748 JUMP JUMPDEST DUP5 DUP5 SLOAD PUSH2 0x6CD JUMP JUMPDEST DUP3 SSTORE POP POP POP POP JUMP JUMPDEST PUSH0 PUSH0 SWAP1 POP SWAP1 JUMP JUMPDEST PUSH2 0x785 PUSH2 0x776 JUMP JUMPDEST PUSH2 0x790 DUP2 DUP5 DUP5 PUSH2 0x751 JUMP JUMPDEST POP POP POP JUMP JUMPDEST JUMPDEST DUP2 DUP2 LT ISZERO PUSH2 0x7B3 JUMPI PUSH2 0x7A8 PUSH0 DUP3 PUSH2 0x77D JUMP JUMPDEST PUSH1 0x1 DUP2 ADD SWAP1 POP PUSH2 0x796 JUMP JUMPDEST POP POP JUMP JUMPDEST PUSH1 0x1F DUP3 GT ISZERO PUSH2 0x7F8 JUMPI PUSH2 0x7C9 DUP2 PUSH2 0x6A0 JUMP JUMPDEST PUSH2 0x7D2 DUP5 PUSH2 0x6B2 JUMP JUMPDEST DUP2 ADD PUSH1 0x20 DUP6 LT ISZERO PUSH2 0x7E1 JUMPI DUP2 SWAP1 POP JUMPDEST PUSH2 0x7F5 PUSH2 0x7ED DUP6 PUSH2 0x6B2 JUMP JUMPDEST DUP4 ADD DUP3 PUSH2 0x795 JUMP JUMPDEST POP POP JUMPDEST POP POP POP JUMP JUMPDEST PUSH0 DUP3 DUP3 SHR SWAP1 POP SWAP3 SWAP2 POP POP JUMP JUMPDEST PUSH0 PUSH2 0x818 PUSH0 NOT DUP5 PUSH1 0x8 MUL PUSH2 0x7FD JUMP JUMPDEST NOT DUP1 DUP4 AND SWAP2 POP POP SWAP3 SWAP2 POP POP JUMP JUMPDEST PUSH0 PUSH2 0x830 DUP4 DUP4 PUSH2 0x809 JUMP JUMPDEST SWAP2 POP DUP3 PUSH1 0x2 MUL DUP3 OR SWAP1 POP SWAP3 SWAP2 POP POP JUMP JUMPDEST PUSH2 0x849 DUP3 PUSH2 0x295 JUMP JUMPDEST PUSH8 0xFFFFFFFFFFFFFFFF DUP2 GT ISZERO PUSH2 0x862 JUMPI PUSH2 0x861 PUSH2 0x45F JUMP JUMPDEST JUMPDEST PUSH2 0x86C DUP3 SLOAD PUSH2 0x670 JUMP JUMPDEST PUSH2 0x877 DUP3 DUP3 DUP6 PUSH2 0x7B7 JUMP JUMPDEST PUSH0 PUSH1 0x20 SWAP1 POP PUSH1 0x1F DUP4 GT PUSH1 0x1 DUP2 EQ PUSH2 0x8A8 JUMPI PUSH0 DUP5 ISZERO PUSH2 0x896 JUMPI DUP3 DUP8 ADD MLOAD SWAP1 POP JUMPDEST PUSH2 0x8A0 DUP6 DUP3 PUSH2 0x825 JUMP JUMPDEST DUP7 SSTORE POP PUSH2 0x907 JUMP JUMPDEST PUSH1 0x1F NOT DUP5 AND PUSH2 0x8B6 DUP7 PUSH2 0x6A0 JUMP JUMPDEST PUSH0 JUMPDEST DUP3 DUP2 LT ISZERO PUSH2 0x8DD JUMPI DUP5 DUP10 ADD MLOAD DUP3 SSTORE PUSH1 0x1 DUP3 ADD SWAP2 POP PUSH1 0x20 DUP6 ADD SWAP5 POP PUSH1 0x20 DUP2 ADD SWAP1 POP PUSH2 0x8B8 JUMP JUMPDEST DUP7 DUP4 LT ISZERO PUSH2 0x8FA JUMPI DUP5 DUP10 ADD MLOAD PUSH2 0x8F6 PUSH1 0x1F DUP10 AND DUP3 PUSH2 0x809 JUMP JUMPDEST DUP4 SSTORE POP JUMPDEST PUSH1 0x1 PUSH1 0x2 DUP9 MUL ADD DUP9 SSTORE POP POP POP JUMPDEST POP POP POP POP POP POP JUMP INVALID LOG2 PUSH5 0x6970667358 0x22 SLT KECCAK256 DUP11 0xEF JUMPF 0x4004 PUSH1 0x4C 0x22 COINBASE 0xD3 LOG1 SELFDESTRUCT NOT 0xE9 0xB2 DIV 0x25 PUSH27 0x1724FAC2BA83AFBB73F38DD77C3264736F6C634300081E00330000 "
				},
				"gasEstimates": {
					"creation": {
						"codeDepositCost": "474600",
						"executionCost": "509",
						"totalCost": "475109"
					},
					"external": {
						"getter()": "infinite",
						"insert(string,uint256,bool)": "infinite",
						"s1()": "infinite"
					}
				},
				"methodIdentifiers": {
					"getter()": "993a04b7",
					"insert(string,uint256,bool)": "c30655a2",
					"s1()": "6cc014de"
				}
			},
			"storageLayout": {
				"storage": [
					{
						"astId": 11,
						"contract": "contracts/struct_datatype.sol:struct_datatype",
						"label": "s1",
						"offset": 0,
						"slot": "0",
						"type": "t_struct(student)8_storage"
					}
				],
				"types": {
					"t_bool": {
						"encoding": "inplace",
						"label": "bool",
						"numberOfBytes": "1"
					},
					"t_string_storage": {
						"encoding": "bytes",
						"label": "string",
						"numberOfBytes": "32"
					},
					"t_struct(student)8_storage": {
						"encoding": "inplace",
						"label": "struct struct_datatype.student",
						"members": [
							{
								"astId": 3,
								"contract": "contracts/struct_datatype.sol:struct_datatype",
								"label": "name",
								"offset": 0,
								"slot": "0",
								"type": "t_string_storage"
							},
							{
								"astId": 5,
								"contract": "contracts/struct_datatype.sol:struct_datatype",
								"label": "roll",
								"offset": 0,
								"slot": "1",
								"type": "t_uint256"
							},
							{
								"astId": 7,
								"contract": "contracts/struct_datatype.sol:struct_datatype",
								"label": "pass",
								"offset": 0,
								"slot": "2",
								"type": "t_bool"
							}
						],
						"numberOfBytes": "96"
					},
					"t_uint256": {
						"encoding": "inplace",
						"label": "uint256",
						"numberOfBytes": "32"
					}
				}
			},
			"userdoc": {
				"kind": "user",
				"methods": {},
				"version": 1
			}
		}
	}
}